:0C21C3004102700041025A00410259FF25
:10212F00D2B49001FB12094300000000E4FF7E507F
:10213F00FDFC9001FBE0F8A3E0F9A3E0FAA3E0FBBC
:10214F00C312090050219001FBE0FCA3E0FDA3E0C6
:10215F00FEA3E02401FFE43EFEE43DFDE43CFC90E1
:09216F0001FB12093780C5C2B45E
:012178002244
:10000E00C2CCD2B3121C66122484122506122456B8
:05001E00C2B4D2AF22C4
:101278001226B6EF146039147003021308147003B1
:101288000213142403600302132D12262AEF5401BB
:10129800FFE4FEFDFCFBFAF9F8C312090070047BB9
:1012A800FF8002E4FBFDFF1225FBE4900259F022C7
:1012B80012262AE47B0CFAF9F8120861AC00AD0199
:1012C800AE02AF03E4FBFAF9F8C312090070047B1D
:1012D800FF802112262AE47B0CFAF9F8120861AC87
:1012E80000AD01AE02AF03E47B06FAF9F8C31209B8
:1012F800007006FBFDFF1225FB9002597401F022D5
:10130800900259E060296401702C8023900259E012
:101318006004640170207BFFE4FDFF1225FB90024E
:10132800597403F022900259E0600464017007E4E4
:06133800FBFDFF1225FB86
:01133E00228C
:1020990090025A7401F0900263E4F0A37463F09023
:1020A900025AE064017016900263E0FEA3E0FFE4C7
:1020B900FCFD90020E1209377F040214A890025AFF
:1020C900E0701790026EE04404FFF0E4FCFDFE901E
:0B20D900020E1209377F15120E932231
:10255200900268E4F0A37462F0900268E0FEA3E0E7
:0F256200FFE4FCFD90020E1209377F0E0214A851
:1025A6009002657464F0E0FFE4FCFDFE90020E12FA
:0725B60009377F050214A89C
:10258D0090026AE0FCA3E0FDA3E0FEA3E0FF900251
:09259D000E1209377F110214A887
:10196600E470547F19900266EFF07F2DA3EFF0E448
:10197600FCFDFE90020E1209377F0D1214A890028C
:1019860066E0FF3395E0FED3EF9432EE64809480F8
:10199600501AE490026EF0900266E03395E0FEFD88
:1019A600FC90020E1209377F0C0214A890026EE01A
:1019B60054FDF04401800990026EE054FEF04402AA
:1019C600FFF0E4FCFDFE90020E1209377F15120EA1
:0119D600937D
:0119D70022ED
:0F260C0012196612209912258D1225A602255249
:10177A007B017A02795B900202120943000000148D
:10178A007F007E047D007C0012154DE4FFFEFDFC07
:10179A0090025BE0F8A3E0F9A3E0FAA3E0FBC3122E
:1017AA000900604974FFFFFEFDFC90025BE0F8A3AC
:1017BA00A3A3E0C312090060347E007F147D007B7E
:1017CA00017A02795B12097A7F007E047D007C002F
:1017DA001226A47B017A02795B900223E4F0A374B7
:0E17EA0014F07F007E047D007C0012166A223F
:1023F40012000E12177A1224DC12260CE490026EDC
:10240400F090025FF01209A61205001212789002F1
:1024140070E0640170EF12260C12268CE4900270B6
:03242400F080E263
:0D263900E4F5C7F5C5F5C675C380F5C422EC
:06238A0090020812093761
:1023900075C78275C501900208A3A3A3E0F5C49098
:1023A0000208E0FCA3E0FDA3E0FEA3E0FF78081232
:1023B00009118FC375C65A75C6A500AFC20226396A
:1023520090022712093775C78275C502900227A31A
:10236200A3A3E0F5C4900227E0FCA3E0FDA3E0FEF6
:10237200A3E0FF78081209118FC3A3E0F5C275C666
:082382005A75C6A500022639B8
:1023C00090021C12093775C78275C50390021CA3C1
:1023D000A3A3E0F5C490021CE0FCA3E0FDA3E0FE93
:1023E000A3E0FF78081209118FC375C65A75C6A5F8
:0423F0000002263988
:10166A0090021C120937900220EBF0A3EAF0A3E9DA
:01167A00F07F
:10167B00E4900225F0A3F0900223E0FEA3E0FFC369
:10168B00900226E09F900225E09E505A90021CE0AB
:10169B00FCA3E0FDA3E0FEA3E0FFA3E0FBA3E0FAC5
:1016AB00A3E0F912077F90022BF012235290021C39
:1016BB00E0FCA3E0FDA3E0FEA3E02401FFE43EFE7B
:1016CB00E43DFDE43CFC90021C120937900221E43E
:1016DB0075F0011207F9900226E004F07099900260
:0816EB0025E004F080917F016D
:0116F30022D4
:0626A4001223C07F012299
:0F154D009001FBEBF0A3EAF0A3E9F0A31209373A
:10155C00E4900206F0A3F0900206E0FEA3E0FFE4A4
:10156C00FCFD900202E0F8A3E0F9A3E0FAA3E0FB93
:10157C00D312090040599001FEE0FCA3E0FDA3E06A
:10158C00FEA3E0FF12238A9001FBE0FBA3E0FAA389
:10159C00E0F9EF1207C59001FEE0FCA3E0FDA3E02B
:1015AC00FEA3E02401FFE43EFEE43DFDE43CFC90A0
:1015BC0001FE1209379001FCE475F0011207F99055
:1015CC000207E004F07090900206E004F080887F3F
:0115DC00010D
:0115DD0022EB
:0421CF004102580071
:1017F800900258E06401607490025FE07024122146
:101808002F90025F7401F0900261E075F05FA4FD13
:10181800900260E075F02AA4FB7FFF1225FBD2B38B
:101828008040900262E06401604212212FE490023D
:101838005FF0FBFDFF1225FBC2B37F007E047D0035
:101848007C001226A47B017A02795B900223E4F0E3
:10185800A37414F07F007E047D007C0012166AEFEA
:0D186800600A90025FE0FD7F0112229422D1
:10204C00122660D2B49001FB12094300000000E498
:10205C00FFFE7D01FC9001FBE0F8A3E0F9A3E0FAA0
:10206C00A3E0FBC312090050219001FBE0FCA3E0AC
:10207C00FDA3E0FEA3E02401FFE43EFEE43DFDE40D
:0C208C003CFC9001FB12093780C5C2B477
:012098002225
:101AB70090025FE06066900262E06401605E12215E
:101AC7002F900260E004F0E0C39407748094804094
:101AD70002E4F0900261E075F05FA4FD900260E01F
:101AE70075F02AA4FB7FFF1225FB7F007E047D0093
:101AF7007C001226A47B017A02795B900223E4F032
:101B0700A37414F07F007E047D007C0012166AEF38
:0D1B1700600A900260E0FD7F02122316229A
:100FF000E4900258F0FBFDFF1225FBE4FBFD7FFFB0
:101000001225FB9001FB12094300000000E4FFFEE3
:101010007D02FC9001FBE0F8A3E0F9A3E0FAA3E075
:10102000FBC312090050219001FBE0FCA3E0FDA3EB
:10103000E0FEA3E02401FFE43EFEE43DFDE43CFCD1
:101040009001FB12093780C5E4FB7DFFFF1225FBF1
:101050009001FB12094300000000E4FFFE7D02FC4A
:101060009001FBE0F8A3E0F9A3E0FAA3E0FBC312D0
:10107000090050219001FBE0FCA3E0FDA3E0FEA3EA
:10108000E02401FFE43EFEE43DFDE43CFC9001FB76
:1010900012093780C57BFFE4FDFF1225FB9001FBA1
:1010A00012094300000000E4FFFE7D02FC9001FBFA
:1010B000E0F8A3E0F9A3E0FAA3E0FBC312090050B3
:1010C000219001FBE0FCA3E0FDA3E0FEA3E02401EE
:1010D000FFE43EFEE43DFDE43CFC9001FB120937D9
:1010E00080C57BFF7DFF7FFF1225FB9002587401B6
:1010F000F01226949001FB12094300000000E4FF67
:10110000FE7D02FC9001FBE0F8A3E0F9A3E0FAA366
:10111000E0FBC312090050219001FBE0FCA3E0FDBD
:10112000A3E0FEA3E02401FFE43EFEE43DFDE43C39
:10113000FC9001FB12093780C5E4FBFDFF0225FB93
:101B240090025FE06066900262E06401605E1221F0
:101B34002F900261E004F0E0C39405748094804027
:101B440002E4F0900261E075F05FA4FD900260E0B1
:101B540075F02AA4FB7FFF1225FB7F007E047D0025
:101B64007C001226A47B017A02795B900223E4F0C4
:101B7400A37414F07F007E047D007C0012166AEFCB
:0D1B8400600A900261E0FD7F03122316222B
:1020E40090025FE0604412212F900262E0700404C9
:1020F400F08005E4900262F07F007E047D007C00A5
:102104001226A47B017A02795B900223E4F0A37483
:1021140014F07F007E047D007C0012166AEF600AD2
:0B212400900262E0FD7F07122294226F
:101C66007E007F2C7D007B017A02792C12097A9006
:101C7600023474FFF0A37420F0A3744CF090023F7A
:101C860074FFF0A3740FF0A374F0F090023174FFA8
:101C9600F0A37417F0A374F8F090023C74FFF0A35D
:101CA600741AF0A374B7F090024774FFF0A3741B84
:101CB600F0A37424F090025274FFF0A37420F0A3F2
:041CC60074E4F022B0
:10257100E4FF2094010F209304EF4402FF2095040F
:0B258100EF4404FF208004EF4408FF3B
:01258C00222C
:1013FE0075F00BA4242DF582E43402F583E0FCA3F2
:08140E00E0FDA3E0FEA3E0FFF6
:06141600900201120937EB
:10141C0012261B900205120937900201E0FCA3E092
:10142C00FDA3E0FEA3E0FFA3E0F8A3E0F9A3E0FA3C
:10143C00A3E0FBC3120900900205E04025FCA3E0E9
:10144C00FDA3E0FEA3E0FF900201E0F8A3E0F9A306
:10145C00E0FAA3E0FBEF9BFFEE9AFEED99FDEC9812
:10146C008026F8A3E0F9A3E0FAA3E0FB900201E0E8
:10147C00FCA3E0FDA3E0FEA3E0FF1208F3EB2FFFBB
:10148C00EA3EFEE93DFDE83CFCA31209379002055B
:0B149C00E0FCA3E0FDA3E0FEA3E0FFE6
:0114A7002222
:10050000122571900200EFF0E49001FBF09001FBE6
:10051000E0FFC3940474809480400302077EEF756B
:10052000F00BA4242CF582E43402F583E024F0607F
:100530004E24D06073244060030205E79001FBE085
:10054000FF900200E0FEA807088002C313D8FC2039
:10055000E0030205E7EF75F00BA4242CF582E434E8
:1005600002F5837410F012261B9001FBE075F00B6E
:10057000A4242DF582E43402F583120937806890B3
:1005800001FBE0FF900200E0FEA807088002C31311
:10059000D8FC20E052EF75F00BA4242CF582E43453
:1005A00002F5837420F0803F9001FBE0FF90020091
:1005B000E0FEA807088002C313D8FC20E0299001C0
:1005C000FBE0FB75F00BA4242DF582E43402F583E7
:1005D00012094300000000EB75F00BA4242CF582F7
:1005E000E43402F583E4F09001FBE075F00BA42401
:1005F0002CF582E43402F583E0FF64106005EF64BB
:100600004070799001FBE01213FE9001FC12093753
:10061000E47F2C7E01FDFC9001FCE0F8A3E0F9A34F
:10062000E0FAA3E0FBC31209005003020775900132
:10063000FBE0FB75F00BA4242DF582E43402F58376
:1006400012094300000000EB75F00BA4242CF58286
:10065000E43402F583E4F09001FBE0FF75F00BA4B5
:100660002434F582E43402F583E0FBA3E0FAA3E04E
:10067000F9EA494B700302077502075E9001FBE03F
:10068000FF75F00BA4242CF582E43402F583E064BA
:10069000206003020775EF1213FE9001FC12093768
:1006A0009001FBE0FB75F00BA4242DF582E43402ED
:1006B000F58312094300000000EB75F00BA4242C15
:1006C000F582E43402F583E4F07F05FEFDFC900141
:1006D000FCE0F8A3E0F9A3E0FAA3E0FBC3120900F1
:1006E0004042E47F2C7E01FDFC9001FCE0F8A3A3D6
:1006F000A3E0120900502D9001FBE0FF75F00BA460
:100700002431F582E43402F583E0FBA3E0FAA3E0B0
:10071000F9EA494B605FEF75F00BA42431F582E4F0
:1007200034028046E47F2C7E01FDFC9001FCE0F861
:10073000A3E0F9A3E0FAA3E0FBC31209004036905E
:1007400001FBE0FF75F00BA42434F582E43402F5DC
:1007500083E0FBA3E0FAA3E0F9EA494B6017EF75E9
:10076000F00BA42434F582E43402F583A3E0FAA369
:0E077000E0F91209749001FBE004F002050D9F
:01077E002258
:1024560043A22053A2EFE4F5D8F5E9F5F975D902C0
:10246600F5F2F5EAF5FA75DA42F5F3F5EBF5FB75F3
:0E247600DB42F5F4F5ECF5FC75DC42D2DE221B
:1025FB008FEA8FFAAF058FEB8FFBAF038FEC8FFC5E
:01260B0022AC
:1021D3004402910000000044028900000000440210
:0521E3008D000000006A
:10250600538E7F5389F0E4F58A758CDCC28DD28CAC
:10251600D2A990029112094300000000900289128C
:072526000943000000002240
:03000B00020B964F
:100B9600C0E0C0F0C083C082C0D075D000C000C025
:100BA60001C002C003C004C005C006C00790029180
:100BB600E0FCA3E0FDA3E0FEA3E02401FFE43EFE8B
:100BC600E43DFDE43CFC900291120937E47B19FAFE
:100BD600F9F8900291E0FCA3E0FDA3E0FEA3E0FF9C
:100BE600120861AC00AD01AE02AF03E4FBFAF9F8FE
:100BF600C31209006003020D11900289E0FCA3E014
:100C0600FDA3E0FEA3E02401FFE43EFEE43DFDE497
:100C16003CFC900289120937900289A3A3A3E054F1
:100C260003FFE4FEFDFCF8C31209006003020D1188
:100C360090028DE0FCA3E0FDA3E0FEA3E02401FF0B
:100C4600E43EFEE43DFDE43CFC90028D120937E4EF
:100C56007B0FF890028DE0FCA3E0FDA3E0FEA3E08D
:100C6600FF120861AC00AD01AE02AF03E4FBFAF976
:100C7600F8C3120900700590027004F0E47F3CFE90
:100C8600FDFC90028DE0F8A3E0F9A3E0FAA3E0FBF7
:100C9600C3120900407590028D120943000000003E
:100CA60090026AE0FCA3E0FDA3E0FEA3E02401FFBE
:100CB600E43EFEE43DFDE43CFC90026A120937E4A2
:100CC6007B1EFAF9F890026AE0FCA3E0FDA3E0FEC1
:100CD600A3E0FF120861AC00AD01AE02AF03E4FB76
:100CE600FAF9F8C31209007022FF7E04FDFC1226F1
:100CF600A47B017A02795B900223E4F0A37414F0DA
:100D06007F007E047D007C0012166AD007D006D0D4
:100D160005D004D003D002D001D000D0D0D082D0EC
:060D260083D0F0D0E032A2
:0F261B00900291E0FCA3E0FDA3E0FEA3E0FF220C
:0F262A00900289E0FCA3E0FDA3E0FEA3E0FF2205
:10248400E598543F4440F59853A23F538EEF438E52
:1024940001438E0475D6FE75D7E0438E10D29CD2CC
:0C24A400ACD2AFD2BC53B1E743B2182257
:080003008F993099FDC299228A
:0300230002225264
:10225200C0E0C0F0C083C082C0D075D000C000C052
:1022620001C002C003C004C005C006C00730980701
:10227200C298AF99121F58D007D006D005D004D00B
:1022820003D002D001D000D0D0D082D083D0F0D001
:02229200E03238
:0521E8004202B70000F7
:1019D800EFC39430400CEFD39439500674D02FFFE6
:1019E8008022EFC39441400CEFD394465006EF2475
:1019F800C9FF8010EFC39461400AEFD39466500486
:101A0800EF24A9FFEF540FC454F0FFEDC394304006
:101A18000CEDD39439500674D02DFD801EEDC3947F
:101A2800414008EDD394465002800CEDC3946140C8
:101A38000AEDD394665004ED24A9FDED540F4FFF31
:011A4800227B
:0B18F10090020EEBF0A3EAF0A3E9F078
:1018FC00A31209430000000090020EE0FBA3E0FAE3
:10190C00A3E04A4B7005FFFEFDFC22900211120968
:10191C00430000000090020EE0FBA3E475F00112FE
:10192C00080FA9F0FA12077F6021900211E0FCA3C6
:10193C00E0FDA3E0FEA3E02401FFE43EFEE43DFD58
:10194C00E43CFC90021112093780CA900211E0FCB1
:09195C00A3E0FDA3E0FEA3E0FFFF
:01196500225F
:0B1EAC00900295EBF0A3EAF0A3E9F030
:101EB70090029BEBF0A3EAF0A3E9F0900295E0FB18
:101EC700A3E0FAA3E04A4B7004FBFAF922900299C7
:101ED70074FFF5F012080F45F0601690029BE0FBC7
:101EE700A3E475F00112080FA9F0FAED1207C580F7
:0C1EF700DC900295E0FBA3E0FAA3E0F908
:011F030022BB
:0B0D2C00900215EBF0A3EAF0A3E9F041
:100D370090021DEBF0A3EAF0A3E9F0900218E0F9A6
:100D4700A3E0FAA3E0900220C9F0A3EAF0A3E9F038
:100D5700900215E0FBA3E0FAA3E04A4B600CA3E086
:100D6700FBA3E0FAA3E04A4B70077B007A00790007
:100D770022900220E0FBA3E0FAA3E0F9C003C0023F
:100D8700C00190021DA3E0FAA3E0F9D3D082D0837B
:100D9700D0E0E99582EA95834033900220A3E0FAF8
:100DA700A3E0F990021BE0FEA3E0FFE92FF9EA3E7A
:100DB700FAC003C002C001A3A3E0FAA3E0F9D3D0AD
:100DC70082D083D0E0E99582EA95834056E4900289
:100DD70023F0A3F090021BE0FEA3E0FF900223E0C4
:100DE700FCA3E0FDC39FEC9E4003020E8790022008
:100DF700E0FBA3E0FAA3E0F98D828C83120798FF4A
:100E070090021DE0FBA3E0FAA3E0F98D828C83EF4B
:100E17001207D7900224E004F07006900223E00442
:100E2700F080B190021BE0FFA3E0900223CFF0A374
:100E3700EFF0900223E0FEA3E0FFD39400EE9400CE
:100E4700403E900220E0FBA3E0FAA3E0F9EF24FF85
:100E5700FFEE34FFFE8F82F583120798FD90021D87
:100E6700E0FBA3E0FAA3E0F98F828E83ED1207D7A8
:100E7700900224E024FFF0900223E034FFF080B2D8
:0B0E8700900215E0FBA3E0FAA3E0F9E5
:010E9200223D
:101D8E009002B11209379002B1E0FCA3E0FDA3E08E
:101D9E00FEA3E0FF7818120911EF1207C59002B1E9
:101DAE00E0FCA3E0FDA3E0FEA3E0FF781012091112
:101DBE00900001EF1207D79002B1E0FCA3E0FDA363
:101DCE00E0FEA3E0FF7808120911900002EF12075F
:101DDE00D79002B1A3A3A3E0FF900003EF0207D7B1
:0B11400090029EEBF0A3EAF0A3E9F0A0
:10114B00A31209430000000012077FFFE4FCFDFE21
:10115B009002A11209379002A1E0FCA3E0FDA3E0ED
:10116B00FEA3E0FF78081209249002A11209379020
:10117B0002A1E0F8A3E0F9A3E0FAA3E0FBC000C0F2
:10118B0001C002C00390029EE0FBA3E0FAA3E0F9CA
:10119B00900001120798FFD003D002D001D000EBD2
:1011AB004FFFEAFEE9FDE8FC9002A112093790021D
:1011BB00A1E0FCA3E0FDA3E0FEA3E0FF7808120989
:1011CB00249002A11209379002A1E0F8A3E0F9A341
:1011DB00E0FAA3E0FBC000C001C002C00390029E76
:1011EB00E0FBA3E0FAA3E0F9900002120798FFD00E
:1011FB0003D002D001D000EB4FFFEAFEE9FDE8FC83
:10120B009002A11209379002A1E0FCA3E0FDA3E03C
:10121B00FEA3E0FF78081209249002A1120937906F
:10122B0002A1E0F8A3E0F9A3E0FAA3E0FBC000C041
:10123B0001C002C00390029EE0FBA3E0FAA3E0F919
:10124B00900003120798FFD003D002D001D000EB1F
:10125B004FFFEAFEE9FDE8FC9002A112093790026C
:0C126B00A1E0FCA3E0FDA3E0FEA3E0FF77
:011277002254
:0626AA0090000AE0FF228F
:0C266000E490000AF0FDFC7F04021BFD6A
:0626B000900006E0FF228D
:0225D400AD0751
:1025D600E4FF900006F0FE1224B0EFFD7C007F05BC
:0325E600021BFDD8
:0626B6009001E4E0FF22A8
:08268C00E4FDFC7F1C021BFDB4
:08269400E4FDFC7F0E021BFDBA
:0E1DEE009002A5EFF0A3EBF0A3EAF0A3E9F05A
:101DFC00E4FFFE900007E0640170020F229002A540
:101E0C00E0FD1224B0E4FD1224B09002A9E0FD1212
:101E1C0024B09002AAE0FD1224B09002A6E0FBA32D
:101E2C00E0FAA3E0F9A3E0FDA3E0900213CDF0A348
:101E3C00EDF0121B9AAD07AC067F07121BFD7F015C
:011E4C002273
:0722940090021CEDF0AC0705
:10229B00E4FFFE900007E0640170020F22AD041210
:1022AB0024B07D011224B0E4FD1224B07D01122470
:1022BB00B090021CE07003FD80027D011224B0ADD2
:0A22CB0007AC067F07121BFD7F0120
:0122D50022E6
:0214A800AD078E
:1014AA00E4FFFE900007E0640170020F221224B0EC
:1014BA007D021224B0E4FD1224B07D041224B0C0CF
:1014CA0006C00790020EE0FCA3E0FDA3E0FEA3E045
:1014DA00FF7818120911AD07D007D0061224B0C040
:1014EA0006C00790020EE0FCA3E0FDA3E0FEA3E025
:1014FA00FF7810120911AD07D007D0061224B0C028
:10150A0006C00790020EE0FCA3E0FDA3E0FEA3E004
:10151A00FF7808120911AD07D007D0061224B0C00F
:10152A0006C00790020EE0FCA3A3A3E0FFE4AD0708
:10153A00D007D0061224B0AD07AC067F07121BFDF8
:02154A007F011F
:01154C00227C
:0E1E4D009002ABEFF0A3EBF0A3EAF0A3E9F0F4
:101E5B00E4FFFE900007E0640170020F229002ABDA
:101E6B00E0FD1224B07D031224B09002AFE0FD120E
:101E7B0024B09002B0E0FD1224B09002ACE0FBA3C2
:101E8B00E0FAA3E0F9A3E0FDA3E0900213CDF0A3E9
:101E9B00EDF0121B9AAD07AC067F07121BFD7F01FD
:011EAB002214
:0723160090021CEDF0AC0782
:10231D00E4FFFE900007E0640170020F22AD04128D
:10232D0024B07D041224B0E4FD1224B07D011224EA
:10233D00B090021CE0FD1224B0AD07AC067F071271
:04234D001BFD7F01F4
:012351002269
:020E9300AD07A9
:100E9500E4900212F0A3F0900007E0640170037F74
:100EA5000122900212E0FEA3E0FF1224B09002128C
:100EB500EEF0A3EFF07D051224B0900212EEF0A340
:100EC500EFF0E4FD1224B0900212EEF0A3EFF090E3
:100ED500020EE0FCA3E0FDA3E0FEA374FFFFE47BAC
:100EE500FFFAF9F8C31209007020900212E0FEA380
:100EF500E0FF7D011224B0900212EEF0A3EFF09016
:100F0500020EA3A3A3E0FD020FD590020EE0FCA301
:100F1500E0FDA3A374FFFFFEE47BFF7AFFF9F8C3AE
:100F25001209009002127009E0FEA3E0FF7D028025
:100F350057E0FEA3E0FF7D041224B0900212EEF00C
:100F4500A3EFF0C006C00790020EE0FCA3E0FDA3EE
:100F5500E0FEA3E0FF7818120911AD07D007D0060F
:100F65001224B0900212EEF0A3EFF0C006C0079075
:100F7500020EE0FCA3E0FDA3E0FEA3E0FF78101263
:100F85000911AD07D007D0061224B0900212EEF079
:100F9500A3EFF0C006C00790020EE0FCA3E0FDA39E
:100FA500E0FEA3E0FF7808120911AD07D007D006CF
:100FB5001224B0900212EEF0A3EFF0C006C0079025
:100FC500020EE0FCA3A3A3E0FFE4AD07D007D00623
:100FD5001224B0900212EEF0A3EFF0900212E0FCA2
:0A0FE500A3E0FD7F07121BFD7F0152
:010FEF0022DF
:0D26460090021CECF0A3EDF012077FFF22C4
:0D26530090021CECF0A3EDF012077FFF22B7
:0B2678009002B5ECF0A3EDF002114061
:101F5800C3900009E09487900008E09400504390F3
:101F680001E5A3E0FAA3E0C39001E49582EA958332
:101F7800400E9001E57401F0A37401F0A3745DF0C4
:101F88009001E5E0FBA3E475F00112080FA9F0FA4F
:101F9800EF1207C5900009E004F07006900008E011
:031FA80004F02220
:1009A600E49001FBF0A3F0A3F0A3F0C39002B8E03B
:1009B60094339002B7E094015029122683D3EF9422
:1009C60000EE9400401D121FAB9002B7E475F001D3
:1009D60012080FFC740B25F0F58274003CF583EFCA
:1009E600F080C8C39002B8E094079002B7E0940084
:1009F6005003020B959001FBE0FEA3E0FFC39002BB
:100A0600B8E09FFD9002B7E09EFCC3ED9407EC941E
:100A1600005003020B48740B2FF58274003EF583D9
:100A2600E0645560109001FCE004F070C89001FB92
:100A3600E004F080C09001FBE0FEA3E0FF240CF58B
:100A46008274003EF583E064AA60109001FCE00425
:100A5600F070A29001FBE004F0809A740D2FF582ED
:100A660074003EF583E060099001FCE02402020B6D
:100A7600239001FBE0FCA3E0FD240FF58274003C0B
:100A8600F583E0FE74102DF58274003CF583E07C5E
:100A9600002400FFEC3ECF2407CF3400FE9001FD7A
:100AA600F0A3EFF0D3943AEE940140089001FCE0F5
:100AB600240380699001FBE0FEA3E0FFC39002B827
:100AC600E09FFD9002B7E09EFC9001FDE0F8A3E0F8
:100AD600F5828883D39DE5839C5067740B2FF97448
:100AE600003EFA7B01E58224FFFDE58334FFFC121C
:100AF6002179AD079001FDE0FAA3E0FB9001FBE050
:100B0600FEA3E0FF2BFBEE3AFA740A2BF582740083
:100B16003AF583E06D60119001FCE02403F090014A
:100B2600FBE03400F00209FB1200269001FDE0FE16
:100B3600A3E0FF9001FCE02FF09001FBE03EF00205
:100B460009FB9001FBE0FEA3E0FFC39002B8E09F23
:100B5600FD9002B7E09EFCF0A3EDF0D39400EC9478
:100B660000402C740B2FF974003EFA9002187401A1
:100B7600F0A3EAF0A3E9F09002B7E0FFA3E0900249
:0F0B86001BCFF0A3EFF07B017A00790B120D2C3F
:010B9500223D
:1024DC009001E57401F0A37401F0A3745DF0900118
:1024EC00E87401F0A37401F0A3745DF0E4900008AB
:0A24FC00F0A3F09001E474FFF02259
:1021ED005602730101020403040402050207010CE7
:0921FD00020D020E02110215058B
:0326BC0002000316
:10133F0090025FE0FD7F01122294900260E0FD7F3A
:10134F0002122316900261E0FD7F03122316900212
:10135F0063E0FEA3E0FFE4FCFD90020E1209377F6D
:10136F00041214A8900265E0FFE4FCFDFE90020E4B
:10137F001209377F051214A8900262E0FD7F071251
:10138F002294900266E0FF3395E0FEFDFC90020E82
:10139F001209377F0C1214A8900267E0FFE4FCFDDE
:1013AF00FE90020E1209377F0D1214A8900268E00A
:1013BF00FEA3E0FFE4FCFD90020E1209377F0E1230
:1013CF0014A890026AE0FCA3E0FDA3E0FEA3E0FFF7
:1013DF0090020E1209377F111214A890026EE0FFCF
:0F13EF00E4FCFDFE90020E1209377F15020E93EB
:101A490012264690021BEFF07032FBFDFF1225FBB8
:101A5900C2B37F007E047D007C001226A47B017A3C
:101A690002795B900223E4F0A37414F07F007E04F2
:101A79007D007C0012166AEF701BFF22900261E064
:101A890075F05FA4FD900260E075F02AA4FB7FFF6A
:101A99001225FBD2B390021BE0FD90025FF07F019B
:0D1AA900122294EF640170037F01227F0080
:011AB600220D
:101CCA0012265390021BEFF090021BE0FF90026075
:101CDA00F0A3E075F05FA4FDEF75F02AA4FB7FFF87
:101CEA001225FB7F007E047D007C001226A47B0166
:101CFA007A02795B900223E4F0A37414F07F007EE9
:101D0A00047D007C0012166AEF7002FF2290021B0B
:101D1A00E0FD7F02122316EF640170037F01227F28
:011D2A0000B8
:011D2B002295
:101D2C0012265390021BEFF090021BE0900261F020
:101D3C0075F05FA4FD900260E075F02AA4FB7FFFB4
:101D4C001225FB7F007E047D007C001226A47B0103
:101D5C007A02795B900223E4F0A37414F07F007E86
:101D6C00047D007C0012166AEF7002FF2290021BA9
:101D7C00E0FD7F03122316EF640170037F01227FC5
:011D8C000056
:011D8D002233
:101FFD0012264690021BEFF07F007E047D007C00D0
:10200D001226A490021BE0900262F07B017A027905
:10201D005B900223E4F0A37414F07F007E047D0036
:10202D007C0012166AEF7002FF2290021BE0FD7F0A
:0E203D0007122294EF640170037F01227F00DE
:01204B002272
:0C266C0090020DEBF0A3EAF0A3E9F022CD
:1022D60090020DEDF0EF7018E07006FBFD7FFF80B9
:1022E6000C90020DE0640170267BFFFDFF0225FBCA
:1022F60090020DE0C3941E74809480E4FB40057D3B
:10230600FFFF8003FD7FFF1225FBE4900258F022B9
:0F25E90090020DEBF0A3EAF0A3E9F0A31209377B
:0225F8007F0161
:0125FA0022BE
:0B187500900215EBF0A3EAF0A3E9F0ED
:10188000EF24FE602114603424FC60462406705B63
:10189000900215E0FBA3E0FAA3E0F9A3E0FCA3E0CB
:1018A000FD121A498040900215E0FBA3E0FAA3E084
:1018B000F9A3E0FCA3E0FD121CCA802A900215E007
:1018C000FBA3E0FAA3E0F9A3E0FCA3E0FD121D2CCA
:1018D0008014900215E0FBA3E0FAA3E0F9A3E0FC7A
:1018E000A3E0FD121FFD90021AEFF090021AE0FF34
:0118F00022D5
:0326BF007F0B226C
:1025BD0059653845676257454157493944676B49F5
:0725CD0000312E302E30001A
:042206004100000093
:0824B00090021DEEF0A3EFF015
:1024B8002444F974013EFA7B01ED1207C590021E0F
:1024C800E004F0700690021DE004F090021DE0FEAA
:0324D800A3E0FF7F
:0124DB0022DE
:091B910090020DE0FF7E007BFFD5
:101B9A00900210EBF0A3EAF0A3E9F090020EEEF047
:031BAA00A3EFF0B6
:101BAD002444F974013EFA7B01C002C001A3E0F99F
:101BBD00A3E0FAA3E0900218C9F0A3EAF0A3E9F0BC
:101BCD00900213E0FFA3E090021BCFF0A3EFF0D043
:101BDD0001D002120D2C900213E0FEA3E0FF900243
:0F1BED000FE02FF090020EE03EF0E0FEA3E0FFCD
:011BFC0022C6
:101F040090021FEBF0A3EAF0A3E9F0A3ECF0A3ED39
:101F1400F090021FE0FBA3E0FAA3E04A4B6034A375
:101F2400E07002A3E0602C90022274FFF5F0120826
:101F34000F45F0601E90021FE0FBA3E0FAA3E0F956
:101F440012077FFF1226BC900220E475F0011207ED
:041F5400F980D4221A
:1021790090021FEBF0A3EAF0A3E9F0A3ECF0A3EDC2
:01218900F065
:10218A00E4A3F0FFFED3900223E09F900222E09E98
:10219A00402190021FE0FBA3E475F00112080FA989
:1021AA00F0FA12077FFD900224E02DF00FBF000124
:0821BA000E80D2900224E0FF28
:0121C20022FA
:081BFD0090021DECF0A3EDF0D5
:101C050090013E7455F0A374AAF0A37401F0A3EFFC
:101C1500F090021DE0FCA3E0FDEC900142F0EDA385
:101C2500F090021E2407F090021DE03400F07B01C5
:101C35007A01793EA3E024FFFD90021DE034FFFC0C
:101C4500122179AE0790021DE0FCA3E0FD243DF5CD
:101C55008274013CF583EFF07B017A01793E021F26
:011C6500047A
:10252D00E4FF900000E0700DFEFD1224B09000005D
:10253D007401F080077E007D011224B0EFFD7C0058
:05254D00E4FF021BFD8C
:10220B00E490020DF07BFF7A2579BD1218F1900254
:10221B0013EEF0A3EFF07A2579BD121B9190020D0E
:10222B00EFF07BFF7A2579CE1218F1900213EEF0C6
:10223B00A3EFF07A2579CE121B9190020DEFF0FDF2
:07224B007C007F01021BFD76
:08269C00E4FDFC7F02021BFDBE
:05242700900214EFF02B
:10242C001226BFE4FEEEC39F501D75F002EEA424ED
:10243C0073F582E5F03402F583E0FD900214E0FCC4
:09244C00ED6C60030E80DEAF06AA
:012455002264
:0B16F40090020DEBF0A3EAF0A3E9F078
:1016FF0012077F900210F0FD9000011207989002E0
:10170F0011F0900002120798900212F0A3E4F090EB
:10171F000003120798FF900213E02FF0900212E0DF
:10172F003400F0AF0512242775F002EFA42474F5EE
:10173F0082E5F03402F583E0FF900211E06F600361
:10174F007F0022900210E0FF90020DE0FBA3E0FA71
:10175F00A3E02404F9E43AFA900212E0FDA3E0902A
:0A176F000218CDF0A3EDF01218757A
:01177900224D
:080026009001FFEEF0A3EFF0E2
:10002E009001FFE0FEA3E0240EF58274003EF583FE
:10003E00E0FF24E470030204CA241CB40F00400342
:10004E000204FF900058F8282873020085020088E9
:10005E0002008B02008E0200AB0200B00200B7025B
:10006E0004FF0201B20204FF0201B50202B802044B
:10007E00FF0204FF0204DD02252D02220B02269C44
:10008E009001FFE0FEA3E02411F58274003EF5839B
:10009E00E09001E4F0E4FDFC7F03021BFD90000AFA
:1000AE0080039000067401F0229001FFE0FCA3E0B3
:1000BE00FD240FF58274003CF583E090020BF0A353
:1000CE00E4F074102DF58274003CF583E0FF90028D
:1000DE000CE02FF090020BE03400F0E4900209F0F7
:1000EE00A3F090020BE0FEA3E0FF900209E0FCA358
:1000FE00E0FDC39FEC9E40030204FF900200E02D42
:10010E00FF9001FFE03CFE74132FF58274003EF564
:10011E0083E07F00FEE4FCFD90020412093790029A
:10012E0004E0F8A3E0F9A3E0FAA3E0FB900209E0F3
:10013E00FEA3E0FF900200E02FFF9001FFE03EFEE5
:10014E0074142FF58274003EF583E0FFE4FCFDFE8F
:10015E00EB2FFFEE3AFEED39FDEC38FC9002041267
:10016E0009379001FFE0FEA3E02411F974003EFA76
:10017E007B01900209E0FEA3E029F9EA3EFA12168D
:10018E00F4900208EFF0900204A3A3E0FEA3E02493
:10019E0004FFE43EFE90020AE02FF0900209E03EDA
:1001AE00F00200F002133F9001FFE0FEA3E02411E5
:1001BE00F58274003EF583E0FFE4FCFDFE90000145
:1001CE00120937900001E0FCA3E0FDA3E0FEA3E0DE
:1001DE00FF7808120924900001120937900001E0FF
:1001EE00F8A3E0F9A3E0FAA3E0FB9001FFE0FEA381
:1001FE00E02412F58274003EF583E0FFEB4FFFEA38
:10020E00FEE9FDE8FC900001120937900001E0FCC8
:10021E00A3E0FDA3E0FEA3E0FF78081209249000FE
:10022E0001120937900001E0F8A3E0F9A3E0FAA368
:10023E00E0FB9001FFE0FEA3E02413F58274003E84
:10024E00F583E0FFEB4FFFEAFEE9FDE8FC900001CD
:10025E00120937900001E0FCA3E0FDA3E0FEA3E04D
:10026E00FF7808120924900001120937900001E06E
:10027E00F8A3E0F9A3E0FAA3E0FB9001FFE0FEA3F0
:10028E00E02414F58274003EF583E0FFEB4FFFEAA5
:10029E00FEE9FDE8FC900001120937E4FDFC7F0A3F
:1002AE00121BFD900005740AF022900005E0640A0E
:1002BE0060030204FF90000704F09001FFE0FCA32E
:1002CE00E0FD240FF58274003CF583E090020BF004
:1002DE00A3E4F074102DF58274003CF583E0FF90DA
:1002EE00020CE02FF090020BE03400F09001FFE0E2
:1002FE00FEA3E02411F58274003EF583E0FFE4FCDA
:10030E00FDFE900204120937900204E0FCA3E0FD0A
:10031E00A3E0FEA3E0FF780812092490020412095C
:10032E0037900204E0F8A3E0F9A3E0FAA3E0FB9013
:10033E0001FFE0FEA3E02412F58274003EF583E097
:10034E00FFEB4FFFEAFEE9FDE8FC900204120937CD
:10035E00900204E0FCA3E0FDA3E0FEA3E0FF78081A
:10036E00120924900204120937900204E0F8A3E067
:10037E00F9A3E0FAA3E0FB9001FFE0FEA3E0241353
:10038E00F58274003EF583E0FFEB4FFFEAFEE9FDD8
:10039E00E8FC900204120937900204E0FCA3E0FD91
:1003AE00A3E0FEA3E0FF78081209249002041209CC
:1003BE0037900204E0F8A3E0F9A3E0FAA3E0FB9083
:1003CE0001FFE0FEA3E02414F58274003EF583E005
:1003DE00FFEB4FFFEAFEE9FDE8FC9002041209373D
:1003EE009001FFE0FEA3E02415F974003EFAA37419
:1003FE0001F0A3EAF0A3E9F090020BE07004A3E091
:10040E006404704F900001E0FCA3E0FDA3E0FEA3A6
:10041E00E0FF900204E0F8A3E0F9A3E0FAA3E0FB0A
:10042E00C3120900702D900201E0FBA3E0FAA3E0D5
:10043E00F9A3E0FCA3E0FDA3E0FEA3E0FFE490023D
:10044E0014F0A3F01225E9900208EFF0E4900005F5
:10045E00F0805490020CE024FCFF90020BE034FF7D
:10046E00FED3EF9400EE94015034E0FAA3E024FCA6
:10047E00FEEA34FF900214F0A3CEF0900204E0FCEA
:10048E00A3E0FDA3E0FEA3E0FF900201E0FBA3E0EA
:10049E00FAA3E0F91225E9900208EFF08009E49042
:1004AE000005F0900208F0900208E064017007FD6C
:1004BE00FC7F0B121BFDE4900007F0229001FFE081
:1004CE00FEA3E02411F974003EFA7B0102266C9023
:1004DE0001FFE0FCA3E0FD2411F58274003CF583DE
:1004EE00E0FF74122DF58274003CF583E0FD1222BC
:0104FE00D627
:0104FF0022DA
:09268300900008E0FEA3E0FF2234
:101FAB00D3900009E09400900008E0940040429028
:101FBB0001E8A3E0FAA3E09001E49582EA9583405F
:101FCB000E9001E87401F0A37401F0A3745DF0901E
:101FDB0001E8E0FBA3E475F00112080FA9F0FA1277
:101FEB00077FFF900009E024FFF0900008E034FF2A
:011FFB00F0F5
:011FFC0022C2
:030000000215DE08
:0C15DE00787FE4F6D8FD75810702162521
:10077F00BB010689828A83E0225002E722BBFE0278
:09078F00E32289828A83E49322AB
:10079800BB010CE58229F582E5833AF583E0225016
:1007A80006E92582F8E622BBFE06E92582F8E22260
:0D07B800E58229F582E5833AF583E493227A
:1007C500BB010689828A83F0225002F722BBFE0113
:0207D500F3220D
:1007D700F8BB010DE58229F582E5833AF583E8F058
:1007E700225006E92582C8F622BBFE05E92582C804
:0207F700F222EC
:1007F900C5F0F8A3E028F0C5F0F8E582158270028B
:060809001583E038F02227
:10080F00A3F8E0C5F025F0F0E5821582700215839C
:06081F00E0C838F0E822F9
:1008250075F008758200EF2FFFEE33FECD33CDCC8A
:1008350033CCC58233C5829BED9AEC99E58298400D
:100845000CF582EE9BFEED9AFDEC99FC0FD5F0D6EA
:10085500E4CEFBE4CDFAE4CCF9A88222B800C1B914
:100865000059BA002DEC8BF084CFCECDFCE5F0CB52
:10087500F97818EF2FFFEE33FEED33FDEC33FCEB8B
:1008850033FB10D703994004EB99FB0FD8E5E4F946
:10089500FA227818EF2FFFEE33FEED33FDEC33FC33
:1008A500C933C910D7059BE99A4007EC9BFCE99A27
:1008B500F90FD8E0E4C9FAE4CCFB2275F010EF2F6C
:1008C500FFEE33FEED33FDCC33CCC833C810D7076C
:1008D5009BEC9AE899400AED9BFDEC9AFCE899F8A7
:0E08E5000FD5F0DAE4CDFBE4CCFAE4C8F9223A
:0D08F300CFF4CFCEF4CECDF4CDCCF4CC229A
:10090000EB9FF5F0EA9E42F0E99D42F0E89C45F04D
:0109100022C4
:10091100E8600FECC313FCED13FDEE13FEEF13FFC4
:03092100D8F122E8
:10092400E8600FEFC333FFEE33FEED33FDEC33FC31
:03093400D8F122D5
:0C093700ECF0A3EDF0A3EEF0A3EFF02233
:10094300A8828583F0D083D08212095A12095A12E1
:10095300095A12095AE473E493A3C583C5F0C58306
:10096300C8C582C8F0A3C583C5F0C583C8C582C8FE
:010973002261
:060974008A838982E4730E
:10097A00EF4E6012EF60010EEDBB010B89828A8394
:10098A00F0A3DFFCDEFA2289F05007F709DFFCA9A1
:0C099A00F022BBFEFCF309DFFCA9F022F8
:1015EA000223F4E493A3F8E493A34003F68001F200
:1015FA0008DFF48029E493A3F85407240CC8C33302
:10160A00C4540F4420C8834004F456800146F6DFD0
:10161A00E4800B01020408102040809021C3E47E7C
:10162A00019360BCA3FF543F30E509541FFEE493C5
:10163A00A360010ECF54C025E060A840B8E493A38C
:10164A00FAE493A3F8E493A3C8C582C8CAC583CAB7
:10165A00F0A3C8C582C8CAC583CADFE9DEE780BE6F
:01220A0000D3
:00000001FF
