:1032170020547579612064656D6F0020205321204B
:1032270000202041212000202000202053412000A1
:063237006572726F720067
:0432A6004100BE0025
:10331B00740190007FF0A374FFF0A3227BFF900059
:07332B00927408F0E4FD229A
:1032E50012335F12337512338A1233FE1232C6124D
:0B32F500323D121DF01229AA02319F89
:102A09007BFF7A3279179000927410F07D017F185C
:102A190012261CE4FB7D04FF1227127B017D047F33
:102A2900101227127B027D047F481227127B017D39
:102A3900047F581227127B037D06E4FF1227127BBD
:102A4900047D067F10122712E4FB7D067F201227E2
:0A2A5900127B017D067F3002271278
:10240800123478EFB407005076902418F82828730F
:1024180002242D02243502243D02244802245302BA
:10242800245E02247B7BFF7A327922804C7BFF7A00
:10243800327928804412331B740AF0A3741E801F5B
:1024480012331B740AF0A37436801412331B740AF7
:10245800F0A3744E800912331B740AF0A37466F05B
:102468007B18E4FDFF1222EA7A32792E1233277F95
:102478001880147BFF7A327931123329FF80087A69
:0A248800327937123327FF12261CA9
:012492002227
:06345A001214A702123F4C
:10278800E4900079F0900079E0FFC394107480948D
:10279800805049EF75F008A4FF2408FB7405123334
:1027A8001D740AF0A3747EF07D031222EAE49000FF
:1027B8007AF0A3F012168F90007BE004F070069078
:1027C800007AE004F0C390007BE0943090007AE057
:1027D800947540E0900079E004F080A91229AA12CB
:1027E8002A0912345A12168F12240812168F02342C
:0127F80038A8
:1031C9001232E512278812168F122ED8121EDD121E
:1031D90024089000BEE0640170EC12345A123438AD
:0731E900E49000BEF080DF5E
:0A342E0090007FE0FEA3E0FFD32230
:0D33FE00E4F59275910175DE2F75BC8022FB
:1033490043BC400000E5BC30E5FB53BCDFAFBDEF3B
:05335900FEADBEEDFF1A
:01335E00224C
:1014A700123349123349E490007DF0A3F0FBFA129E
:1014B700334990007EE02FF090007DE03EF00BBBBB
:1014C70000010AEB64084A70E690007DE0FEA3E0A5
:1014D7007803CEA2E713CE13D8F8FF90007DEEF085
:1014E700A3EFF0EE3395E0FDFCE47BC87A19F9F839
:1014F70012105F780C1211BBEF2432FFE43EFE900E
:10150700007FF0A3EFF0D39468EE648094905016B8
:10151700C3E094F890007FE06480948F40089000C7
:10152700AF746402165612342E94F8EE6480948FCA
:101537005013C3EF94ACEE6480948F40089000AFD3
:10154700745A02165612342E94ACEE6480948F505F
:1015570013C3EF9474EE6480948F40089000AF74C7
:101567005002165612342E9474EE6480948F5013E2
:10157700C3EF9446EE6480948F40089000AF7446A2
:1015870002165612342E9446EE6480948F5013C37D
:10159700EF941EEE6480948F40089000AF743C0275
:1015A700165612342E941EEE6480948F5013C3EF98
:1015B70094F6EE6480948E40089000AF7432021661
:1015C7005612342E94F6EE6480948E5013C3EF9423
:1015D700DAEE6480948E40089000AF7428021656A5
:1015E70012342E94DAEE6480948E5012C3EF94C6B0
:1015F700EE6480948E40079000AF741E80511234C1
:101607002E94C6EE6480948E5012C3EF94B4EE64A9
:1016170080948E40079000AF7414803312342E9458
:10162700B4EE6480948E5012C3EF949CEE64809461
:101637008E40079000AF740A8015D3900080E09425
:101647009C90007FE06480948E5029E49000AFF076
:10165700E0FB7A009000917403F0A37408F0E4FDB6
:101667007F601219AE90009A7408F07B25E4FD7F25
:101677007812218F9000AFE0FFE4FCFDFE90009D03
:081687001212027F04022697F3
:10338A0075BA8043BA1090FE8074F5F090FE82E41C
:02339A00F0221F
:0300C30002311DEA
:0D311D00C0E0C083C082C0D075D000C007E4
:10312A00AFBA43BA8090FE82E030E606E054BFF0C0
:04313A00C2008FBA86
:0B313E00D007D0D0D082D083D0E03288
:0C340B00D20090FE817481F02000FD22B0
:1033AE0090FE86EFF0D20090FE817482F02000FD38
:0133BE0022EC
:1033BF00D20090FE817484F02000FD90FE87E0FF24
:0133CF0022DB
:1033D00090FE82E4F0D20090FE817485F02000FD22
:0133E00022CA
:0C341700D20090FE817486F02000FD229F
:10309000E47F2C7E01FDFC900079E0F8A3E0F9A329
:1030A000E0FAA3E0FB2290007DE0FCA3E0FDA3E0BA
:1030B000FEA3E0FF22E0FBA3E0FAA3E0F9EA494B1C
:0130C00022ED
:063460001214A702123F46
:03347E000233F026
:10319F009000C612120E00000000E49000BFF0C2B3
:1031AF0001A374FFF0A37434F0A3747EF0A374FF33
:0A31BF00F0A37434F0A37460F02252
:062ABD0090007D121202E0
:102AC3001233E19000811212021230A6A312309A3F
:102AD300C3121197900081E040161230AA90007D36
:102AE30012309AEF9BFFEE9AFEED99FDEC9880145D
:102AF30012309B1230A612117CEB2FFFEA3EFEE947
:0F2B03003DFDE83CFCA31212029000811230A9A4
:012B120022A0
:101EDD009000BFE024F0601C24D0602224407032BA
:101EED0020872F9000BF7410F01233E19000C612BE
:101EFD001202801E30871B9000BF74208011308726
:101F0D00119000C612120E00000000E49000BFF008
:101F1D00C2019000BFE0FF64106005EF64407027C0
:101F2D009000C61230A9121FBB123090C312119728
:101F3D00407B9000BF7440F0A31230B5606F20015C
:101F4D006C12347ED201229000BFE06420705E904E
:101F5D0000C61230A9121FBB9000C612120E00004F
:101F6D000000E49000BFF07F05FE123095C3121102
:101F7D00974023E47F2C7E01FDFC900079E0F8A3CF
:101F8D00A3A3E0121197500E9000C31230B5601D3F
:101F9D0020011A023460123090C3121197400E9036
:0D1FAD0000C01230B5600620010312347E22
:0B1FBA0022122ABD90007912120222B0
:10251900F583E5822FF582E43583F583E493FF7E25
:1025290000E4FDFC2204FF900093E0FEEF8EF0A48E
:10253900FF90008DE02FFFA3E0FD22900095E0249D
:1025490030FB900092E090009AF022900091E01404
:10255900FF900094E0FEC39F2290009BE075F0106D
:10256900A42FF582E435F0F583E5822290009CE002
:10257900FFC39408748094802290007FE0FFC39485
:10258900107480948022E4F0A3E02402F022EFF09A
:05259900A3EDF0A322F8
:103149009000A0EFF0A3EDF012340B9000A1123122
:103159006BE4FF1233AE1233D09000A012316B0230
:0B3169003417E0FF1233AE1233D02207
:103174009000A0EFF0A3EDF012340B9000A11231F7
:10318400967F401233AE1233D09000A012319602D3
:0B3194003417E0FF1233AE1233D022DC
:1032630090009EEEF0A3EFF0ED64014C90009E7091
:1032730008A3E0FF7D78023149A3E0FF7D78123196
:023283007422B3
:101DF0007FAE121E89E4FFFE1232637F10121E892D
:101E00007F407E001232637FB0121E977F817E007A
:101E10001232637FFF121E977FA17E001232637F12
:101E2000A6121EA57FA87E001232637F3F121EA558
:101E30007FC87E001232637FD3121EB3E4FFFE120E
:101E400032637FD5121EB37F807E001232637FD94A
:101E5000121EC17FF17E001232637FDA121EC17F33
:101E6000127E001232637FDB121ECF7F307E0012A3
:101E700032637F8D121ECF7F147E001232637D018C
:101E80007C007FAF7E000232637D017C007E001209
:101E900032637D017C00227D017C007E0012326372
:101EA0007D017C00227D017C007E001232637D0179
:101EB0007C00227D017C007E001232637D017C006B
:101EC000227D017C007E001232637D017C00227D38
:0D1ED000017C007E001232637D017C002247
:1029AA00E490007CF090007CE0FF7E0012257A50D3
:1029BA004DEF24B0FFEE33FE7D017C001232637DC1
:1029CA00017C00E4FFFE1232637D017C007F107EF1
:1029DA0000123263E490007DF090007DE0C39480A1
:1029EA00748094805010E4FDFCFFFE123263900064
:0E29FA007DE004F080E390007CE004F080A714
:012A080022AB
:1030290090009DEFF0ED24B0FFE433FE12305154CF
:10303900F0C4540F7E004410FF123051540FFF7E2C
:10304900007D017C000232637D017C0012326390B5
:04305900009DE022D4
:0B218F00900098EDF0900097EFF0FD3D
:10219A00E490009BF0A3F0EB24E090009BF0EDD3D9
:1021AA00947F748094804007E49000971225909061
:1021BA00009AE064107044122235122575501312E9
:1021CA00256224EEF582E583340212252312224683
:1021DA0080E8900097E0FFA3E004FD123029E49024
:1021EA00009CF0122575504212256224F6F582E50C
:1021FA0083340212252312224680E81222359000E7
:10220A009CE0FFC3940674809480501E90009BE06B
:10221A0075F006A424C6F582E5F0340012251912D9
:0A222A00326390009CE004F080D4C1
:1022340022900097E0FFA3E0FD123029E490009C77
:0C224400F02212326390009CE004F022B3
:0E261C0090008D122597EBF0A3EAF0A3E9F0F1
:10262A00E4900093F090008FE0FBA3E0FAA3E0F9B6
:10263A00900093E0F582758300120F47FB604D907E
:10264A00008DE0FFA3E0FD900092E090009AF01266
:10265A00218F900092E06408701690008DE02406A5
:10266A00F0E0D3947A74809480401912258F8014F4
:10267A0090008DE02408F0E0D39478748094804030
:0C268A000312258F900093E004F080996B
:012696002221
:032CED00900097BD
:102CF00012259712120E00000001900098E0FF14B8
:102D0000F0EF6020A3E0F8A3E0F9A3E0FAA3E0FB72
:102D1000900097E0FFE4FCFDFE12105F9000991216
:102D2000120280D6900099E0FCA3E0FDA3E0FEA390
:022D3000E0FFC2
:012D3200227E
:0B19AE0090008D122597EAF0A3EBF0EB
:1019B900E4900096F0900092E0FE64087006A3742B
:1019C90006F080069000937408F090008FE0FCA365
:1019D900E0FDC3EC648094805065C3E49DFDE49C04
:1019E90090008FF0A3EDF090008DE0FFA3E0FD9053
:1019F900009AEEF07B2D12218FE4900094F0900074
:101A090091E01225594003021A95121A96701A127A
:101A190025545015A3E0700BEE12252E12254B7B91
:101A29002080109000967401F0900094E012252E09
:101A390012254412218F900094E004F0021A07E461
:101A4900900094F0900091E0122559503F121A9697
:101A5900701D1225545018A3E0700E900093E012E7
:101A6900253612254B7B2080179000967401F09043
:101A79000094E0FF900093E08FF01225381225447E
:0C1A890012218F900094E004F0021A4D2E
:101A950022C3EF9E14FD7F0A122CEDA804A905AA06
:101AA50006AB0790008FE0FEA3E0FFEE3395E0FD67
:101AB500FC1210EAE47B0AFAF9F81210EA90009594
:051AC500EBF0A3E0229C
:0D27120090007EEBF090007CEFF0A3EDF066
:10271F00E4900080F0123029E490007FF0122582BF
:10272F00501890007EE075F040A424DEF582E5F0AD
:10273F00340812251912277880E390007CE0FFA35C
:10274F00E004FD123029E490007FF012258250182A
:10275F0090007EE075F040A424FEF582E5F0340889
:08276F0012251912277880E3FE
:1027770022123263900080E004F090007FE004F0C2
:01278700222F
:0A22EA0090007CEFF090007EEBF016
:1022F400E4900083F0A3F090007FE0FF540770089F
:10230400EF131313541F800A90007FE01313135428
:102314001F04900086F0900086EDF090007FE0FFAF
:10232400900086E0FDC39F504E90007CE0FF123089
:102334002990007CE0900085F090007EE0FF900002
:1023440085E0C39F5029900080E0FBA3E0FAA3E05E
:10235400F9A3E475F00112104985F082F583120F98
:1023640047122527123263900085E004F080CA905A
:072374000086E004F080A4E4
:01237B00223F
:063466006572726F720036
:102F8300E0FAA3E0FB9000917402F0A37410F02226
:102F9300900089E0FCA3E0FDEC020D31E4120D3159
:102FA3007B007AFF797F7847020C8F9400E064807E
:082FB300948090009A74102232
:1032C60012340B7F881232DE7F271232DE7F3712EE
:0F32D60033AE1233D00234171233AE1233D0227C
:0E29420090008DEBF0A3EAF0A3E9F0A3EDF016
:10295000A374FFF0E4FD900090E0FFEDC39F5044AE
:10296000A3E0FF90008DE0FBA3E0FAA3E0F98D82E5
:10297000758300120F47FEEF6E900091F07F08EF15
:10298000D39400748094804018900091E030E70761
:1029900025E06431F08007900091E025E0F01F8091
:0929A000DE0D80B2900091E0FF11
:0129A900220B
:10123F0012340B7F881214A07FE01214A0E4FF1267
:10124F0033AE1233D012340B7F891233AE1233D038
:10125F001233BF90007D12148E90007E12148E9068
:10126F00007F121497900080121497900081EFF076
:10127F001233D01233BF900082EFF01234177B017C
:10128F007A00797D7D0212294290007FE06F600322
:10129F000214777B017A0079807D02122942900037
:1012AF0082E06F600302147790007DE0FEA3E0FD03
:1012BF00AC06900080E0FEA3E0FBEBFF900087EE12
:1012CF00F0A3EFF0AE04AF05122F9F7B007AC07929
:1012DF00DA7844120B86E4FBFA79E178C3120A95A7
:1012EF00120D6A9000ACEEF0A3EFF07C007D0A12B5
:1012FF000FFD900089EEF0A3EFF0900087E0FCA3C4
:10130F00E0FD122F9FE4FBFA79C87842120B861288
:10131F000D6A9000AEEFF0122F937B337AB3796D95
:10132F007843120A95C004C005C006C007122F9358
:10133F007BF67A28798A7841120B86D003D002D0B7
:10134F0001D000120C8F122288C004C005C006C045
:10135F00079000AEE075F06484FCE4120D367B2933
:10136F007A5C79C37840120B86D003D002D001D0BB
:10137F0000120B86120D6AAD07AC06E4120D317B1D
:10138F00CD7ACC794C783E120B86C004C005C006CE
:10139F00C007122F937BC37AF57988783F120B869B
:1013AF00D003D002D001D000120A957BCD7ACC7930
:1013BF002C78C0120A95120D6A90008BEEF0A3EFF5
:1013CF00F09000ACE0FEA3E0FFEE3395E0FDFC9063
:1013DF00009D1212027F011226979000AEE0FFE4EB
:1013EF00FCFDFE90009D1212027F021226979000C4
:1013FF0089122F837D047F201219AED390008AE0CB
:10140F00900089122FAE4009F07B607D047F308001
:10141F0007F07B607D047F3812218F9000AEE0FBD8
:10142F007A00122F887D047F681219AE90009A748B
:10143F0010F07B257D047F7812218F90008B122F67
:10144F00837D067F401219AED390008CE090008B05
:10145F00122FAE4009F07B607D067F508007F07B36
:10146F00607D067F5802218F7BFF7A34796690006A
:0E147F00927410F07D047F2012261C1232C6DB
:10148D0022EFF01233D01233BF22EFF01233D0120D
:0A149D0033BF221233AE1233D02207
:10335F0075AC1075D6FD75D7C0758E14D29CC20290
:06336F0075AF08D2AF2289
:080003002002FDD2028FAD22A4
:03008B00022BB98C
:102BB900C0E0C0F0C083C082C0D075D000C000C0E2
:102BC90001C002C003C004C005C006C007E5AC309F
:102BD900E10553ACFDC202E5AC30E00853ACFEAFF1
:102BE900AD12259ED007D006D005D004D003D0025F
:0F2BF900D001D000D0D0D082D083D0F0D0E03245
:0732AA0044010200000000D6
:10286A00F9F8E0FCA3E0FDA3E0FEA3E0FF1210EA02
:10287A00AC00AD01AE02AF03E4FBFAF9F8C30211F2
:10288A0097E0FCA3E0FDA3E0FEA3E02401FFE43E01
:10289A00FEE43DFDE43CFC22A3A3E0FEA3E0FBAA88
:1028AA00069000917402F0A37408F0E4FD22E47F1C
:1028BA003CFEFDFCE0F8A3E0F9A3E0FAA3E0FBC3C9
:0F28CA000211971212029000B0E0FEA3E0FF226D
:10323D00538E7F5389F0E4F58A758CB8C28DD28C8C
:10324D00D2A990010212120E000000009000B0E40D
:06325D00F0A3741EF02234
:03000B00021FC50C
:101FC500C0E0C0F0C083C082C0D075D000C000C0E2
:101FD50001C002C003C004C005C006C007900102CD
:101FE50012288B900102121202E47B64FA9001021E
:101FF50012286A600302208F9000B212288B90008D
:10200500B21228CDD3943CEE94005011AB07AA062A
:10201500E4F8A312286C70059000BE04F09000B29D
:102025001228B8402F9000B212120E000000009046
:1020350000B612288B9000B61228CD7C007D3C128C
:102045000FA8AB07AA06E49000B612286A7005909F
:1020550000BE04F09000B61228B840169000B612E3
:10206500120E000000009000BA12288B9000BA12E0
:102075001202E47F18FEFDFC9000BA1228BE400A49
:102085009000BA12120E00000000D007D006D0054D
:10209500D004D003D002D001D000D0D0D082D083DC
:0520A500D0F0D0E03294
:0F33E100900102E0FCA3E0FDA3E0FEA3E0FF22C9
:102ED8009000BA1228A27F28122F037F3412218F64
:102EE8009000B61228A27F3A122F037F4612218F34
:102EF8009000B21228A27F4C0219AE1219AE9000AF
:092F08009A7408F07B3AE4FD2202
:1000C6000000000000000000002F000000000700F4
:1000D600070000147F147F1400242A7F2A1200626E
:1000E600640813230036495522500000050300001A
:1000F60000001C224100000041221C000014083EA2
:1001060008140008083E0808000000A06000000867
:1001160008080808000060600000002010080402BB
:10012600003E5149453E0000427F40000042615179
:100136004946002141454B31001814127F10002713
:1001460045454539003C4A494930000171090503D6
:1001560000364949493600064949291E0000363607
:10016600000000005636000000081422410000146A
:100176001414141400004122140800020151090647
:1001860000324959513E007C1211127C007F4949C8
:100196004936003E41414122007F4141221C007FF9
:1001A60049494941007F09090901003E4149497A07
:1001B600007F0808087F0000417F41000020404181
:1001C6003F01007F08142241007F40404040007FED
:1001D600020C027F007F0408107F003E4141413E31
:1001E600007F09090906003E4151215E007F091979
:1001F60029460046494949310001017F0101003F76
:100206004040403F001F2040201F003F4038403FF5
:100216000063140814630007087008070061514959
:10022600454300007F41410000552A552A550000EC
:1002360041417F000004020102040040404040406A
:10024600000001020400002054545478007F484402
:10025600443800384444442000384444487F003839
:100266005454541800087E0901020018A4A4A47C62
:10027600007F080404780000447D4000004080842C
:100286007D00007F102844000000417F4000007C74
:1002960004180478007C0804047800384444443880
:1002A60000FC242424180018242418FC007C0804CC
:1002B600040800485454542000043F444020003CA5
:1002C6004040207C001C2040201C003C4030403C2C
:1002D600004428102844001CA0A0A07C00446454BC
:1002E6004C44141414141414000000000000000000
:1002F6000000000000000000000000F80000000000
:10030600000000333000000000100C06100C060040
:10031600000000000000000040C07840C0784000A7
:10032600043F04043F040400007088FC0830000009
:10033600001820FF211E0000F008F000E018000061
:1003460000211C031E211E0000F00888700000001A
:100356001E2123241927211010160E00000000006C
:100366000000000000000000000000E01804020089
:10037600000000071820400000020418E0000000FA
:100386000040201807000000404080F080404000F8
:100396000202010F01020200000000F0000000004E
:1003A6000101011F01010100000000000000000022
:1003B60080B0700000000000000000000000000097
:1003C6000001010101010101000000000000000020
:1003D60000303000000000000000000080601804BB
:1003E600006018060100000000E010080810E00098
:1003F600000F102020100F00001010F80000000061
:100406000020203F202000000070080808887000A7
:100416000030282422213000003008888848300027
:100426000018202020110E000000C02010F8000047
:1004360000070424243F240000F8088888080800E0
:100446000019212020110E0000E0108888180000F5
:10045600000F112020110E0000380808C8380800C7
:100466000000003F00000000007088080888700047
:10047600001C222121221C0000E010080810E000C8
:100486000000312222110F00000000C0C000000051
:100496000000003030000000000000800000000076
:1004A600000080600000000000008040201008006E
:1004B6000001020408102000404040404040400037
:1004C6000404040404040400000810204080000012
:1004D6000020100804020100007048080808F00017
:1004E6000000003036010000C030C828E810E000E7
:1004F6000718272423140B000000C038E000000072
:10050600203C23020227382008F8888888700000DB
:10051600203F202020110E00C030080808083800AF
:10052600071820202010080008F808080810E00026
:10053600203F202020100F0008F88888E8081000C7
:10054600203F20202320180008F88888E80810009B
:10055600203F200003000000C030080808380000D3
:1005660007182020221E020008F808000008F808D4
:10057600203F210101213F20000808F8080800005B
:100586000020203F2020000000000808F80808008E
:10059600C08080807F00000008F888C02818080006
:1005A600203F20012638200008F80800000000003F
:1005B600203F20202020300008F8F800F8F8080036
:1005C600203F003F003F200008F830C00008F80830
:1005D600203F200007183F00E01008080810E00040
:1005E6000F10202020100F0008F808080808F00057
:1005F600203F210101010000E01008080810E0007A
:100606000F18242438504F0008F88888888870000E
:10061600203F2000030C30200070880808083800AE
:100626000038202121221C00180808F808081800A4
:100636000000203F2000000008F808000008F80825
:10064600001F202020201F000878880000C83808D6
:10065600000007380E010000F80800F80008F8004E
:10066600033C0700073C03000818688080681808E8
:1006760020302C03032C30200838C800C838080066
:100686000000203F2000000010080808C8380800B5
:100696002038262120201800000000FE0202020059
:1006A6000000007F40404000000C30C00000000009
:1006B600000000010638C00000020202FE00000031
:1006C600004040407F0000000000040202020400D7
:1006D6000000000000000000000000000000000014
:1006E600808080808080808000000C12120C0000C8
:1006F60000000000000000000000808080800000F4
:100706000019242222223F2008F8008080000000E1
:10071600003F112020110E000000008080800000A4
:10072600000E112020201100000000808088F800B3
:10073600000E112020103F200000808080800000E5
:10074600001F222222221300008080F08888881849
:100756000020203F20200000000080808080800054
:10076600006B94949493600008F8008080800000E9
:10077600203F210000203F200080989800000000C4
:100786000020203F202000000000008098980000F4
:1007960000C08080807F000008F800008080800014
:1007A600203F24022D302000000808F80000000039
:1007B6000020203F202000008080808080808000F4
:1007C600203F20003F20003F808000808080000086
:1007D600203F210000203F20000080808080000014
:1007E600001F202020201F00808000808000000045
:1007F60080FFA12020110E00000000808080800074
:10080600000E112020A0FF80808080008080800064
:1008160020203F2120000100000080808080800091
:100826000033242424241900008080E08080000006
:100836000000001F20200000808000000080800053
:10084600001F202020103F208080800000808080B4
:1008560000010E3008060100808000800080808044
:100866000F300C030C300F00008080008080800069
:100876000020312E0E312000808080000080808094
:1008860080818E7018060100008080808080800044
:100896000021302C2221300000000000807C020262
:1008A60000000000003F404000000000FF00000084
:1008B60000000000FF0000000002027C8000000033
:1008C6000040403F0000000000060101020204044F
:1008D60000000000000000001060028C0000FE9284
:1008E60092929292FE0000000000000000000000BC
:1008F600000000000000000004047E01407E424229
:100906007E427E42427E4000000000000000000061
:1009160000000000000000000000FC242424FC2548
:100926002624FC242424040000000000000000000B
:10093600000000000000000040308F80844C5525E8
:100946002525554C80808000000000000000000036
:1009560000000000000000001060028C00FE929271
:1009660092929292FE00000000000000000000003B
:10097600000000000000000004047E014448507F8F
:1009860040407F5048444000000000000000000046
:100996000000000000000000008060F80710101042
:1009A600D0FFD01010100000000000000000000072
:1009B6000000000000000000010000FF1008040B0A
:1009C60008FF080B040810000000000000000000EB
:1009D60000000000000000000000FC04D454545441
:1009E600D4047F84C5360400000000000000000027
:1009F6000000000000000000886601006382829209
:100A0600AB8482C10224CF00000000000000000079
:100A160000000000000000000003050911FF110995
:100A260005038850205088000000000000000000E8
:100A36000003050911FF118905C300E000F000F865
:100A460000000000000000000003050911FF1189E5
:100A560005C300E000F000F80000021F42F8400065
:100A660000FE8282828292BA9282828282EE38006E
:100A760000000000000000000000FCFEFEFC00007C
:080A860000003F7F7F3F0000EC
:0532B10042010E0000C7
:1020AA00EB4FFFEAFEE9FDE8FC9000A11212029054
:1020BA0000A1E0FCA3E0FDA3E0FEA3E0FF22900064
:1020CA00A7E0FBA3E0FAA3E0F922EBF0A3EAF0A36E
:1020DA00E9F02278081211CF9000A11212029000A2
:1020EA00A1E0F8A3E0F9A3E0FAA3E022FFE0FBA352
:1020FA00E475F001121049A9F0FA22A3E0FBA3E06B
:10210A00FAA3E04A4B22AD07E4FFFE900002E06426
:10211A000122AB07AA067D037F0722900071740192
:10212A00F0A37400F0A37423F02290007CE0FEA3D5
:10213A00E0FFC390010FE09FFD90010EE09EFC229C
:10214A00900071A3E0FAA3E022A3E0FDA3E09000CF
:10215A009ACDF0A3EDF0229000E5E0FCA3E0FDA308
:10216A002290007CE0FEA3E022E0FCA3A3A3E0FF10
:10217A00E4AD0722E99582EA958322ECF0A3EDF01B
:05218A00120F2EFF22E0
:1027F900EFC39430400CEFD39439500674D02FFFB7
:102809008022EFC39441400CEFD394465006EF2445
:10281900C9FF8010EFC39461400AEFD39466500456
:10282900EF24A9FFEF540FC454F0FFEDC3943040D7
:102839000CEDD39439500674D02DFD801EEDC39450
:10284900414008EDD394465002800CEDC394614099
:102859000AEDD394665004ED24A9FDED540F4FFF02
:01286900224C
:062B13009000951220D491
:102B1900A312120E00000000900095122106700504
:102B2900FFFEFDFC2290009812120E00000000909A
:102B390000951220F7120F2E601E90009812216442
:102B4900E0FEA3E02401FFE43EFEE43DFDE43CFC9D
:0E2B590090009812120280D79000981220BCB3
:012B6700224B
:062F11009000CA1220D45A
:102F17009000D01220D49000CA1221067004FBFA48
:102F2700F9229000CE74FFF5F012104945F0600CBD
:102F37009000D01220F7ED120F7480E69000CA12AD
:022F470020CB9D
:012F49002265
:061BE60090009C1220D4C7
:101BEC009000A41220D490009F1220EE9000A7C960
:101BFC001220D590009C1221066005122105700759
:101C0C007B007A007900221220C8C003C002C001F8
:101C1C009000A41220CDD3D082D083D0E012217EAC
:101C2C00402A9000A71220CD9000A2E0FEA3E0FF76
:101C3C00E92FF9EA3EFAC003C002C001A31220CD7D
:101C4C00D3D082D083D0E012217E4046E49000AA0B
:101C5C00F0A3F09000A2E0FEA3E0FF9000AAE0FC4D
:101C6C00A3E0FDC39FEC9E50791220C88D828C831B
:101C7C00120F47FF9000A41220CB8D828C83EF12A1
:101C8C000F869000ABE004F070069000AAE004F020
:101C9C0080C19000A2E0FFA3E09000AACFF0A3EFD8
:101CAC00F09000AAE0FEA3E0FFD39400EE94004075
:101CBC00311220C8EF24FFFFEE34FFFE8F82F58334
:101CCC00120F47FD9000A41220CB8F828E83ED1251
:101CDC000F869000ABE024FFF09000AAE034FFF0F8
:081CEC0080BF90009C1220CB88
:011CF40022CD
:062B68009000D31220D4FE
:102B6E009000D91220D49000D312210660051221B4
:102B7E000570077B007A007900229000D61220CBD8
:102B8E00120F2E60159000D61220F9120F2E900003
:102B9E00D31220F6EF120F7480E09000D31220CBE8
:0A2BAE00E4120F749000D91220CB3E
:012BB80022FA
:102A63009000EB1220D49000EB1220CB120F2EFF1C
:102A730060249000EE1220CB120F2E6019B50716BA
:102A83009000ECE475F0011210339000EFE475F060
:102A93000112103380D09000EE1220CB120F2EFFC4
:102AA3003395E0FE9000EB1220CB120F2EFD3395F1
:0A2AB300E0FCC3ED9FFFEC9EFE2245
:102CA5009001061212029001061220BC781812112A
:102CB500A8EF120F749001061220BC78101211A80B
:102CC500900001EF120F869001061220BC780812C1
:102CD50011A8900002EF120F86900106A3A3A3E0AE
:082CE500FF900003EF020F86CF
:0624930090009E1220D40F
:10249900A312120E00000000120F2EFFE4FCFDFE35
:1024A9001220B31220DDFBC000C001C002C003909E
:1024B900009E1220CB900001120F47FFD003D002DB
:1024C900D001D0001220AA1220DDFBC000C001C03B
:1024D90002C00390009E1220CB900002120F47FF0A
:1024E900D003D002D001D0001220AA1220DDFBC0F7
:1024F90000C001C002C00390009E1220CB900003CF
:0F250900120F47FFD003D002D001D0001220AA3A
:0125180022A0
:062E64009000F21220D4E0
:102E6A0012211070020F22123285E4FD123285906F
:102E7A0000F5E0FD1232859000F6E0FD12328590F1
:102E8A0000F21220CB122153122C0812211C1228F4
:032E9A00D97F01DC
:012E9D002212
:072F4A00900110EDF0AC074F
:102F510012211270020F22AD041232857D0112324C
:102F610085E4FD1232857D01123285900110E070F9
:102F710003FD80027D0112328512211C1228D97FA6
:012F8100014E
:012F8200222C
:1026970012211070020F221232857D02123285E458
:1026A700FD1232857D04123285C006C00790009D59
:1026B7001220BC78181211A8AD07D007D006123225
:1026C70085C006C00790009D1220BC78101211A883
:1026D700AD07D007D006123285C006C00790009D0F
:1026E7001220BC78081211A8AD07D007D006123205
:1026F70085C006C00790009D122173D007D006122F
:0A270700328512211C1228D97F012F
:0127110022A5
:062E9E009000F81220D4A0
:102EA40012211070020F221232857D031232859096
:102EB40000FBE0FD1232859000FCE0FD12328590AB
:102EC40000F81220CB122153122C0812211C1228B4
:032ED400D97F01A2
:012ED70022D8
:07305D00900111EDF0AC073A
:1030640012211270020F22AD041232857D04123235
:1030740085E4FD1232857D01123285900111E0FD57
:0B30840012328512211C1228D97F0196
:01308F00221E
:021ACA00AD0766
:101ACC00E49000E9F0A3F012211570037F0122903D
:101ADC0000E9E0FEA3E0FF121BC27D05121BC2E46D
:101AEC00FD121BCE122161E0FEA374FFFFE47BFF0D
:101AFC00FAF9F8C312119770139000E97D01121BCB
:101B0C00B19000E5A3A3A3E0FD021B94122161A3F5
:101B1C0074FFFFFEE47BFF7AFFF9F8C31211979074
:101B2C0000E97009E0FEA3E0FF7D0280327D041223
:101B3C001BB1C006C0079000E51220BC781812112A
:101B4C00A8AD07D007D006121BCEC006C007900068
:101B5C00E51220BC78101211A8AD07D007D00612E0
:101B6C001BDAC006C0079000E51220BC78081211E1
:101B7C00A8AD07D007D006121BDAC006C00790002C
:101B8C00E5122173D007D0061232859000E9EEF0F1
:101B9C00A3EFF09000E9E0FAA3E0FB7D037F0712CE
:041BAC0028D97F01B4
:101BB00022E0FEA3E0FF1232859000E9EEF0A3EFF1
:101BC000F0221232859000E9EEF0A3EFF0221232FB
:101BD000859000E9EEF0A3EFF0221232859000E943
:061BE000EEF0A3EFF0227D
:07344C0090010A1221852204
:0734530090010C12218522FB
:0B34230090009CECF0A3EDF00224935D
:10259E00900078EFF012214AAE02FF900074A3E093
:1025AE00FAA3E0C39FFFEA9EFEEF64014E605E90C9
:1025BE000074E0FBA3A3E0F9C003C002C0019000C9
:1025CE00711220CDD3D082D083D0E012217E401E56
:1025DE00900074A3E0FAA3E0AE02FF12214A9FFF1F
:1025EE00EA9EFEC3EF9417EE64809480501F122172
:1025FE004AC390003A9582EA9583400312212590B2
:0E260E000078E09000711220F6EF120F742297
:0C008E009000FD1220D4A3ECF0A3EDF0D4
:10009A00E4FDFCD3900101E09D900100E09C401832
:1000AA009000FD1220CB8D828C83120F47FF122500
:0800BA009E0DBD00010C80DB6E
:0100C200221B
:10168F00E490007CF0A3F0A3F0A3F0C390010FE06F
:10169F00941F90010EE09400502A1230F0D3EF9473
:1016AF000074809480401D122C5790010EE475F049
:1016BF0001121049FC740325F0F58274003CF58388
:1016CF00EFF080C7C390010FE0940790010EE094F4
:1016DF00005003021861122134C3ED9407EC9400FB
:1016EF00500302182674032FF58274003EF583E031
:1016FF006455601090007DE004F070DA90007CE09B
:10170F0004F080D212216BFF2404F58274003EF5A1
:10171F0083E064AA601090007DE004F070B8900040
:10172F007CE004F080B074052FF58274003EF583E1
:10173F00E0600890007DE02402804990007CE0FC8E
:10174F00A3E0FD2407F58274003CF583E090007E52
:10175F00F0A3E4F074082DF58274003CF583E024C7
:10176F0007FFE433FE90007FE02FF090007EE03E15
:10177F00F0E0FEA3E0FFD39426EE9400401190001A
:10178F007DE02403F090007CE03400F00216E59039
:10179F00007CE0FCA3E0FDC390010FE09DFD9001F4
:1017AF000EE09CFCD3EF9DEE9C506C12216B24033A
:1017BF00F974003EFA7B0190007FE024FFFD90005A
:1017CF007EE034FFFC122FBBAD0790007EE0FAA342
:1017DF00E0FB12216BFF2BFBEE3AFA74022BF58222
:1017EF0074003AF583E06D601490007DE02403F0FF
:1017FF0090007CE03400F07590300216E51218620C
:10180F0090007EE0FEA3E0FF90007DE02FF09000BF
:10181F007CE03EF00216E5122134F0A3EDF0D394F4
:10182F0000EC9400402C74032FF974003EFA9000E2
:10183F009F7401F0A3EAF0A3E9F090010EE0FFA37B
:10184F00E09000A2CFF0A3EFF07B017A00790312B2
:02185F001BE686
:011861002264
:10337500122125900074122128E4900002F090009B
:053385007774FFF02247
:06346C00900022E0FF22A7
:0E33F000E4900022F0FBFA7D037F040228D94E
:06347200900001E0FF22C2
:02333200AD07E5
:10333400E4FF900001F0FE123285EFFB7A007D037A
:053344007F050228D9FD
:06347800900077E0FF2246
:0A343800E4FBFA7D037F1C0228D993
:0B32B6004800DC0102020204020602D4
:10339C00E090009DFFE4FCFDFE02120290009D02F5
:0233AC0012020B
:0334810002000343
:102D74009000ACE0FEA3E0FFEE3395E0FDFC1233DF
:102D8400A87F011226979000AE12339C7F02122670
:102D9400979000AF12339C7F041226979000B0E006
:0F2DA400FEA3E0FFE4FCFD1233A87F0602269792
:102DB300123423900098121202900098A3A3E0FF0C
:102DC300A3E09000B0CFF0A3EFF0900098E0FCA355
:102DD300E0FDA3E0FEA3E0FF1233A87F06122697CF
:0A2DE300EF640170037F01227F00FE
:012DED0022C3
:10330000EF24FA7010900095E0FCA3E0FD122DB3BD
:0A331000900097EFF0900097E0FFA7
:01331A002290
:033484007F0422A0
:102FF300120F2E6401702E900004120F479000BA36
:103003001233A0900005120F47FFE4FCFDFE900071
:10301300B6121202900006120F47FFE4FCFDFE9069
:0630230000B212120222AD
:102DEE007B2270223A2200796E7837626F38396D05
:102DFE006B6E767369716500222C2276223A220060
:102E0E00312E312E3000222C226D223A0032007DDE
:0B2E1E000000000000000000000000A9
:0432C10041000000C8
:102E29009000A3E0FBA3E0FAA3E022EBF0A3EAF011
:102E3900A3E9F022E0FBA3E475F001121049A9F01F
:102E4900FA020F2EEEF0A3EFF02440F974003EFAD7
:0B2E59007B0122900080E0FEA3E0223D
:033285009000A115
:10328800122E4DED120F749000A2E004F07006901B
:0D32980000A1E004F09000A1E0FEA3E0FF23
:0132A5002206
:092C0800900097122E3490009503
:102C1100122E4DC002C001A3E0F9A3E0FAA3E09097
:102C2100009FC9122E3590009AE0FFA3E09000A208
:102C3100CFF0A3EFF0D001D002121BE690009AE092
:102C4100FEA3E0FF900096E02FF0900095E03EF0AB
:052C5100E0FEA3E0FF1E
:012C5600225B
:0C2FBB009000A3122E34A3ECF0A3EDF064
:102FC700E4A3F0FFFED39000A7E09F9000A6E09E49
:102FD70040149000A3122E3DFD9000A8E02DF00FA5
:0B2FE700BF00010E80DF9000A8E0FF9B
:012FF20022BC
:102D33009000A3122E34A3ECF0A3EDF0122E294A37
:102D43004B602DA3E07002A3E060259000A674FF02
:102D5300F5F012104945F06017122E29F9120F2EC3
:102D6300FF1234819000A4E475F00112103380DB6C
:012D7300223D
:0828D9009000A1EAF0A3EBF06E
:1028E10090003A7455F0A374AAF0A3EDF0A3EFF0B1
:1028F1009000A1E0FCA3E0FDEC90003EF0EDA3F020
:102901009000A2E02407F09000A1E03400F07B01E8
:102911007A00793AA3E024FFFD9000A1E034FFFCA6
:10292100122FBBAE079000A1E0FCA3E0FD2439F516
:102931008274003CF583EFF07B017A00793A022D35
:012941003362
:1031F000E4FF900000E0700DFEFD123285900000AB
:103200007401F080077E007D01123285EFFB7A00A9
:073210007D03E4FF0228D951
:101CF500E490008AF0788B7C007D017BFF7A2E7959
:101D05001FFE7F0A120F087A2D79EE121D907A2D8B
:101D150079EE121DD07A2D79F5121D907A2D79F56F
:101D2500121DD07A2E7906121DA77A2E7906121D5C
:101D3500E77A2E790E121DA77A2E790E121DE77AF3
:101D45002E7914121DD97A2E7914121DBE7A2E7988
:101D55001B121DD97A2E791B121DBE7BFF7A2E7997
:101D65001D122B1390009AEEF0A3EFF090008AE07D
:101D7500FF7E007BFF7A2E791D122C0890008AEFDA
:0B1D8500F0FB7A007D037F010228D9EB
:101D90007BFF122B1390009AEEF0A3EFF090008AD5
:101DA000E0FF7E007BFF227BFF122B1390009AEE58
:101DB000F0A3EFF090008AE0FF7E007BFF2290000E
:101DC0008AE0FF7E007BFF122C0890008AEFF02251
:101DD000122C0890008AEFF0227BFF122B13900048
:101DE0009AEEF0A3EFF022122C0890008AEFF02276
:0A344200E4FBFA7D037F020228D9A3
:0530C100900091EFF00A
:1030C600123484E4FEEEC39F501D75F002EEA42474
:1030D600DCF582E5F03400F583E0FD900091E0FC3C
:0930E600ED6C60030E80DEAF0604
:0130EF0022BE
:06000E0090008A122E345E
:10001400120F2E90008DF0FD900001120F479000FA
:100024008EF0900002120F4790008FF0A3E4F0903E
:100034000003120F47FF900090E02FF090008FE034
:100044003400F0AF051230C175F002EFA424DDF5E1
:1000540082E5F03400F583E0FF90008EE06F6003EA
:100064007F002290008DE0FF90008A122E2C240441
:10007400F9E43AFA90008FE0FDA3E0900095CDF00A
:06008400A3EDF0123300B1
:01008A002253
:08186200900080EEF0A3EFF00E
:10186A00122E5C2406F58274003EF583E0FF24E420
:10187A00700302199E241CB4090040030219AD909A
:10188A001890F82828730218AB0218AE0218B10291
:10189A0018B40218CF0218D40218DB0219AD0219C3
:1018AA009B0231F0021CF5023442122E5C2409F527
:1018BA008274003EF583E0900077F0E4FBFA7D0342
:1018CA007F030228D990002280039000017401F05E
:1018DA0022900080E0FCA3E0FD2407F58274003C1E
:1018EA00F583E0FE74082DF58274003CF583E0FD73
:1018FA00EDFF900087EEF0A3EFF0E4900085F0A3EF
:10190A00F0900087E0FEA3E0FFC3900086E09F907E
:10191A000085E09E40030219ADE0FEA3E0FF9000BF
:10192A0080E0FCA3E0FD2FFBEC3EFA740B2BF58262
:10193A0074003AF583E0900082F0A3E4F0740C2B73
:10194A00F58274003AF583E0FF900083E02FF0906F
:10195A000082E03400F074092DF974003CFA7B012E
:10196A00900085E0FEA3E029F9EA3EFA12000E9003
:10197A000084EFF0900083E02404FF900082E034BA
:10198A0000FE900086E02FF0900085E03EF00219FC
:10199A000B022D74122E5C2409F974003EFA7B01A5
:0319AA00122FF306
:0119AD002217
:1030F000900074122E2CF9C003C002C00190007120
:10310000122E2CF9D082D083D0E06B7008E9658252
:0D3110007003EA658360037F01227F0022C7
:102C5700900071122E2CF9C003C002C001A3122EDE
:102C67002CF9D082D083D0E06B7008E965827003BD
:102C7700EA65836028900074A3E0FAA3E0C390009C
:102C87003A9582EA9583400E9000747401F0A3741C
:0D2C970000F0A37423F0900074122E3DFF96
:012CA400220D
:100A8E00020DD6E86480F8E933E83360110460F0B3
:100A9E00ED33EC337009E8FCE9FDEAFEEBFF2204CE
:100AAE0060DED3EB9FEA9EE99DE8C2E78CF0C2F7C9
:100ABE0095F0400CE8CCF8E9CDF9EACEFAEBCFFB95
:100ACE00120DA185D0F05804700320D5B3E8047040
:100ADE00075002B2D5020DE092D5EC0460F7E4CCDB
:100AEE00C0E0C398F8603B94186008400DD0E0FB5E
:100AFE00020DB8E4FBFAC9FC8028E830E406E4C92C
:100B0E00FBE4CAFCE830E305E4C9CACBFCE85407B1
:100B1E006010F8C3E913F9EA13FAEB13FBEC13FCBC
:100B2E00D8F130F52FC3E49CFCEF9BFFEE9AFEED5F
:100B3E0099FDD0E0FBEF4E4D4C701222DB03020DFF
:100B4E00DDEC2CFCEF33FFEE33FEED33FDED30E745
:100B5E00EB020DB8EF2BFFEE3AFEED39FDD0E0FBC8
:100B6E0050130BBB0003020DE0ED13FDEE13FEEF71
:080B7E0013FFEC13FC020DB89B
:100B8600EC4D6011E8497017ED33EC3304600DE469
:100B9600FCFFFEFD22E933E8330470F8020DD6129D
:100BA6000DA158046009E4CC24815006285009029E
:100BB6000DE0284003020DDDC0E0EB4A7044B98029
:100BC60006D0E0FB020DCCEF4E701CBD8008EBFF9B
:100BD600EAFEE9FD80EBE98DF0A4FEE5F0020C6F7C
:100BE600E9CDF9EAFEEBFFEF89F0A4FCE5F0CE894A
:100BF600F0A42EFFE435F0CD89F0A42DFEE435F007
:100C06008067EF4E7005BD80D780C3EF8BF0A4AC34
:100C1600F0EE8BF0A42CFCE435F0F8EF8AF0A42C6F
:100C2600E5F038FCE433CB8DF0A42CFCE5F03BF882
:100C3600EE8AF0A42CFCE5F038F8E433CF89F0A472
:100C46002CFCE5F038CF3400CE89F0A42FFFE5F078
:100C56003EFEE433C98DF0A42EFEE5F039CD8AF0D0
:100C6600A42FFFE5F03EFEE43DFD33D0E0FB500748
:100C76000BBB000F020DE0EC2CFCEF33FFEE33FE56
:060C8600ED33FD020DB884
:100C8C00020DE0EC5D046005E859047003020DD61A
:100C9C00120DA1580460F6EC4860F2EC7004FDFEF5
:100CAC00FF22C860DB2481C85009C398600250063B
:100CBC00020DDD9850CAF582E9294B4A7005AB82CA
:100CCC00020DCC75F0007C1A7880C3EF9BEE9AED88
:100CDC0099400DC3EF9BFFEE9AFEED99FDE842F0B3
:100CEC00DC23ACF0D0E0FFD0E0FED0E0FDAB822006
:100CFC00E7101BEB60BAEC2CFCEF33FFEE33FEED90
:100D0C0033FD020DB8E803F830E705C0F075F000CC
:100D1C00EF2FFFEE33FEED33FD40B830E7C280AA73
:100D2C0075F020800E75F010800575F0087D007E42
:100D3C00007F003392D530D503121189EC3340106B
:100D4C00EF33FFEE33FEED33FDEC33FCD5F0ED224B
:0E0D5C00E5F0247EA2D513CC92E7CDCEFF2287
:100D6A00EDD2E7CD33EC3392D524814006E4FFFE81
:100D7A00FDFC22FCE4CFCECDCC24E0501174FF80E0
:100D8A00EDC3CC13CCCD13CDCE13CECF13CF04707D
:070D9A00F030D5DE021189E3
:1022500033DA929E35B16011377FE5FE39218489EA
:102260003AAEC3FF3C1D955B3D6358473E75FDF09C
:102270003F3172183F800000C2D5020DE0020DD63A
:10228000BD80FA50F3020DDDED33EC330460F17BD9
:102290003B7AAA79B8783F120B86ED33EC3392D5AE
:1022A000247B5011A2D570DB500BED4480240450E8
:1022B00004A2D580CEEFFBEEFAEDF9ECF8120D6A30
:1022C000EFF582F404FC120D36120A95C0829022BA
:1022D000507409120DFAED33CC33D0F092D525F0BD
:0A22E000A2D57001C313CC13FD2238
:100DA100E9D2E7C933E833F892D5EDD2E7CD33EC98
:070DB10033FC5002B2D52211
:100DB800EC30E7100FBF000C0EBE00080DBD00049C
:100DC8000BEB6014A2D5EB13FCED92E7FD2274FF48
:100DD800FCFDFEFF22E480F8A2D574FF13FC7D80A1
:030DE800E480EFB5
:100DEB00C0E0EFFBEEFAEDF9ECF8120B86D0E0F574
:100DFB00F0EFFBEEFAEDF9ECF81211E2A3A3A3A3CB
:100E0B00E8C0E0E9C0E0EAC0E0EBC0E0C0F0120BE4
:100E1B00861211F2A3A3A3A3120A95D0F0D0E0FB84
:0D0E2B00D0E0FAD0E0F9D0E0F8D5F0D42204
:0300000002237C5C
:0C237C00787FE4F6D8FD7581200223C3B1
:100E3800E709F608DFFA8046E709F208DFFA803E9C
:100E480088828C83E709F0A3DFFA8032E309F60889
:100E5800DFFA8078E309F208DFFA807088828C83F1
:100E6800E309F0A3DFFA806489828A83E0A3F608A5
:100E7800DFFA805889828A83E0A3F208DFFA804C7F
:100E880080D280FA80C680D4806980F28033801056
:100E980080A680EA809A80A880DA80E280CA8033BF
:100EA80089828A83ECFAE493A3C8C582C8CCC58337
:100EB800CCF0A3C8C582C8CCC583CCDFE9DEE78007
:100EC8000D89828A83E493A3F608DFF9ECFAA9F086
:100ED800EDFB2289828A83ECFAE0A3C8C582C8CCDC
:100EE800C583CCF0A3C8C582C8CCC583CCDFEADEF5
:100EF800E880DB89828A83E493A3F208DFF980CC57
:100F080088F0EF60010E4E60C388F0ED2402B4044F
:100F18000050B9F582EB2402B4040050AF232345F6
:060F28008223900E887385
:100F2E00BB010689828A83E0225002E722BBFE02C1
:090F3E00E32289828A83E49322F4
:100F4700BB010CE58229F582E5833AF583E022505F
:100F570006E92582F8E622BBFE06E92582F8E222A9
:0D0F6700E58229F582E5833AF583E49322C3
:100F7400BB010689828A83F0225002F722BBFE015C
:020F8400F32256
:100F8600F8BB010DE58229F582E5833AF583E8F0A1
:100F9600225006E92582C8F622BBFE05E92582C84D
:020FA600F22235
:100FA800BC000BBE0029EF8DF084FFADF022E4CC2D
:100FB800F875F008EF2FFFEE33FEEC33FCEE9DECF6
:100FC800984005FCEE9DFE0FD5F0E9E4CEFD22ED3C
:100FD800F8F5F0EE8420D21CFEADF075F008EF2F86
:100FE800FFED33FD4007985006D5F0F222C398FD77
:050FF8000FD5F0EA2214
:100FFD00C2D5EC30E709B2D5E4C39DFDE49CFCEE0F
:10100D0030E715B2D5E4C39FFFE49EFE120FA8C3CF
:10101D00E49DFDE49CFC8003120FA830D507C3E4CA
:06102D009FFFE49EFE227D
:10103300C5F0F8A3E028F0C5F0F8E5821582700248
:061043001583E038F022E5
:10104900A3F8E0C5F025F0F0E5821582700215835A
:06105900E0C838F0E822B7
:10105F00E88FF0A4CC8BF0A42CFCE98EF0A42CFC30
:10106F008AF0EDA42CFCEA8EF0A4CDA8F08BF0A4AE
:10107F002DCC3825F0FDE98FF0A42CCD35F0FCEB0D
:10108F008EF0A4FEA9F0EB8FF0A4CFC5F02ECD39D2
:0F109F00FEE43CFCEAA42DCE35F0FDE43CFC223F
:1010AE0075F008758200EF2FFFEE33FECD33CDCCF9
:1010BE0033CCC58233C5829BED9AEC99E58298407C
:1010CE000CF582EE9BFEED9AFDEC99FC0FD5F0D659
:1010DE00E4CEFBE4CDFAE4CCF9A88222B800C1B983
:1010EE000059BA002DEC8BF084CFCECDFCE5F0CBC1
:1010FE00F97818EF2FFFEE33FEED33FDEC33FCEBFA
:10110E0033FB10D703994004EB99FB0FD8E5E4F9B4
:10111E00FA227818EF2FFFEE33FEED33FDEC33FCA1
:10112E00C933C910D7059BE99A4007EC9BFCE99A95
:10113E00F90FD8E0E4C9FAE4CCFB2275F010EF2FDA
:10114E00FFEE33FEED33FDCC33CCC833C810D707DA
:10115E009BEC9AE899400AED9BFDEC9AFCE899F815
:0E116E000FD5F0DAE4CDFBE4CCFAE4C8F922A8
:0D117C00CFF4CFCEF4CECDF4CDCCF4CC2208
:0E118900C3E49FFFE49EFEE49DFDE49CFC2277
:10119700EB9FF5F0EA9E42F0E99D42F0E89C45F0AE
:0111A7002225
:1011A800E8600FECC313FCED13FDEE13FEEF13FF25
:0311B800D8F12249
:1011BB00E86010ECA2E713FCED13FDEE13FEEF134A
:0411CB00FFD8F02237
:1011CF00E8600FEFC333FFEE33FEED33FDEC33FC7E
:0311DF00D8F12222
:1011E200E493FC740193FD740293FE740393FF2253
:1011F200E493F8740193F9740293FA740393FB2253
:0C120200ECF0A3EDF0A3EEF0A3EFF0225F
:10120E00A8828583F0D083D0821212251212251265
:10121E001225121225E473E493A3C583C5F0C5838A
:10122E00C8C582C8F0A3C583C5F0C583C8C582C82A
:01123E00228D
:102388000231C9E493A3F8E493A34003F68001F271
:1023980008DFF48029E493A3F85407240CC8C33356
:1023A800C4540F4420C8834004F456800146F6DF25
:1023B800E4800B01020408102040809032A6E47EDD
:1023C800019360BCA3FF543F30E509541FFEE4931A
:1023D800A360010ECF54C025E060A840B8E493A3E1
:1023E800FAE493A3F8E493A3C8C582C8CAC583CA0C
:1023F800F0A3C8C582C8CAC583CADFE9DEE780BEC4
:0132C5000008
:00000001FF
