:103290002020532120002020412120002020002038
:0B32A00020534120006572726F720025
:0430C0004100E100EA
:1032DD00740190007DF0A374FFF0A3227BFF90009A
:0732ED00927408F0E4FD22D9
:0D338000007F067E9D7D3BDDFEDEFCDFFA5A
:01338D00221D
:1032C50012332112333712334C121DDF1228DA1252
:0832D500323712318C0230EB9C
:102C6500E4FB7D04FF1226B67B017D047F1012264E
:102C7500B67B027D047F481226B67B017D047F5812
:102C85001226B67B037D06E4FF1226B67B047D067D
:102C95007F101226B6E4FB7D067F201226B67B0147
:072CA5007D067F300226B618
:10243600123429EFB407005076902446F828287302
:1024460002245B02246302246B02247602248102A6
:10245600248C0224A97BFF7A327990804C7BFF7A08
:1024660032799680441232DD740AF0A3741E801FFE
:102476001232DD740AF0A3743680141232DD740A47
:10248600F0A3744E80091232DD740AF0A37466F06C
:102496007B18E4FDFF12231D7A32799C1232E97F04
:1024A6001880147BFF7A32799F1232EBFF80087A0C
:0A24B6003279A51232E9FF12264028
:0124C00022F9
:063411001214A702123F95
:102BD100E4900079F0900079E0C3941074809480BF
:102BE100502B12169C900079E075F008A4FF240880
:102BF100FB74051232DF740AF0A3747EF07D0312B8
:102C0100231D123380900079E004F080C812169CD5
:0C2C11001228DA122C651234110224364D
:1031D4001232C5122BD112169C121ECC1224369018
:1031E40000E1E0640170EF123411E49000E1F0803A
:0131F400E5F5
:0A33EF0090007FE0FEA3E0FFD32270
:0D339C00E4F59275910175DE2F75BC80225D
:10330B0043BC400000E5BC30E5FB53BCDFAFBDEF79
:05331B00FEADBEEDFF58
:01332000228A
:1014A70012339C12330B12330BE490007DF0A3F040
:1014B700FBFA12330B90007EE02FF090007DE03EA8
:1014C700F00BBB00010AEB64084A70E690007DE070
:1014D700FEA3E07803CEA2E713CE13D8F8FF90005F
:1014E7007DEEF0A3EFF0EE3395E0FDFCE47BC87AE8
:1014F70019F9F812100A780C121166EF2432FFE47A
:101507003EFE90007FF0A3EFF0D39468EE648094E2
:10151700905016C3E094F890007FE06480948F4069
:10152700089000DE74640216591233EF94F8EE64E3
:1015370080948F5013C3EF94ACEE6480948F40086F
:101547009000DE745A0216591233EF94ACEE6480A1
:10155700948F5013C3EF9474EE6480948F40089077
:1015670000DE74500216591233EF9474EE648094BF
:101577008F5013C3EF9446EE6480948F4008900019
:10158700DE74460216591233EF9446EE6480948F48
:101597005013C3EF941EEE6480948F40089000DED2
:1015A700743C0216591233EF941EEE6480948F50E8
:1015B70013C3EF94F6EE6480948E40089000DE74B7
:1015C700320216591233EF94F6EE6480948E50135C
:1015D700C3EF94DAEE6480948E40089000DE74289E
:1015E7000216591233EF94DAEE6480948E5012C3C8
:1015F700EF94C6EE6480948E40079000DE741E80E0
:10160700511233EF94C6EE6480948E5012C3EF9458
:10161700B4EE6480948E40079000DE741480331219
:1016270033EF94B4EE6480948E5012C3EF949CEE23
:101637006480948E40079000DE740A8015D3900072
:1016470080E0949C90007FE06480948E5029E49021
:1016570000DEF0E0FB7A009000917403F0A37408B9
:10166700F0E4FD7F6012199D90009A7408F07B25C5
:10167700E4FD7F781220999000DEE0FD7F03122FB2
:10168700749000DEE0FFE4FCFDFE90009B1211ADBC
:051697007F040225C5DF
:0D33A900AE071233B6AF0512335E02327F5D
:10334C0075BA8043BA1090FE8074D9F090FE82E476
:02335C00F0225D
:0300C300023068A0
:0D306800C0E0C083C082C0D075D000C0079A
:10307500AFBA43BA8090FE82E030E606E054BFF076
:04308500C2008FBA3C
:0B308900D007D0D0D082D083D0E0323E
:0C33B600D20090FE817481F02000FD2206
:10335E0090FE86EFF0D20090FE817482F02000FD88
:01336E00223C
:10336F00D20090FE817484F02000FD90FE87E0FF74
:01337F00222B
:0B32740012335E12327FAF0612335E91
:10327F0090FE82E4F0D20090FE817485F02000FD74
:01328F00221C
:0C33C200D20090FE817486F02000FD22F5
:0B33CE001233A9E4FF1232740233C274
:0B33D9001233A97F401232740233C28D
:1031F50020526566726573682020002020202020FB
:103205002020202020007265736574207769666927
:0132150000B8
:102D3300E47F2C7E01FDFC900079E0F8A3E0F9A389
:102D4300E0FAA3E0FB2290007DE0FCA3E0FDA3E01A
:102D5300FEA3E0FF227BFF9000927410F07D017FC1
:0E2D63001822E0FBA3E0FAA3E0F9EA494B22B4
:1032AB007A3179F5122D581226401214A712123FBB
:0A32BB007A327900122D58022640E5
:1032560012338E123429EF6008123429EF6401709C
:0E3266000C7BFF7A32790B122D5A1226402271
:1030EB009000BD1211B900000000E49000B6F0C2D0
:1030FB0001A374FFF0A37432F0A37456F0A374FF12
:0A310B00F0A37432F0A374ABF022BD
:0629930090007D1211AD61
:1029990012342F9000811211AD122D49A3122D3D31
:1029A900C3121142900081E04016122D4D90007D16
:1029B900122D3DEF9BFFEE9AFEED99FDEC988014E8
:1029C900122D3E122D49121127EB2FFFEA3EFEE987
:0F29D9003DFDE83CFCA31211AD900081122D4C86
:0129E80022CC
:101ECC009000B6E024F0601C24D0602224407032D4
:101EDC0020872F9000B67410F012342F9000BD1292
:101EEC0011AD801E30871B9000B674208011308796
:101EFC00119000BD1211B900000000E49000B6F082
:101F0C00C2019000B6E0FF64106005EF64407027DA
:101F1C009000BD122D4C121FAA122D33C312114268
:101F2C00407B9000B67440F0A3122D65606F2001C9
:101F3C006C123256D201229000B6E06420705E9092
:101F4C0000BD122D4C121FAA9000BD1211B9000039
:101F5C000000E49000B6F07F05FE122D38C312117C
:101F6C00424023E47F2C7E01FDFC900079E0F8A335
:101F7C00A3A3E0121142500E9000BA122D65601D01
:101F8C0020011A0232AB122D33C3121142400E90B3
:0D1F9C0000B7122D656006200103123256B9
:0B1FA900221229939000791211AD2242
:10228F00F583E5822FF582E43583F583E493FF7EB2
:10229F0000E4FDFC2204FF900093E0FEEF8EF0A41B
:1022AF00FF90008DE02FFFA3E0FD22900095E0242A
:1022BF0030FB900092E090009AF022900091E01491
:1022CF00FF900094E0FEC39F2290009BE075F010FA
:1022DF00A42FF582E435F0F583E5822290009CE08F
:1022EF00FFC394087480948022E0FBA3E0FAA3E07C
:1022FF00F92290007DE0FFC394107480948022E453
:0E230F00F0A3E02402F022EFF0A3EDF0A322F1
:1031B20090009EEEF0A3EFF0ED64014C90009E7043
:1031C20008A3E0FF7D780233CEA3E0FF7D781233BF
:0231D200D92200
:10279D009000E2EBF0A3EAF0A3E9F0A3ECF0A3EDD7
:0127AD00F03B
:1027AE00E4A3F0A3F01233B67F781228027F401212
:1027BE002802E49000E7F0A3F09000E5E0FEA3E02D
:1027CE00FFA3E0FCA3E0FDC39FEC9E50249000E22B
:1027DE001222F88D828C83120F47FF12335E123253
:1027EE007F9000E8E004F070D09000E7E004F08005
:0427FE00C80233C218
:0728020012335E12327F2247
:101DDF007FAE121E78E4FFFE1231B27F10121E7812
:101DEF007F407E001231B27FB0121E867F817E004F
:101DFF001231B27FFF121E867FA17E001231B27F99
:101E0F00A6121E947FA87E001231B27F3F121E943D
:101E1F007FC87E001231B27FD3121EA2E4FFFE12E2
:101E2F0031B27FD5121EA27F807E001231B27FD9D0
:101E3F00121EB07FF17E001231B27FDA121EB07F18
:101E4F00127E001231B27FDB121EBE7F307E001277
:101E5F0031B27F8D121EBE7F147E001231B27D0112
:101E6F007C007FAF7E000231B27D017C007E0012CC
:101E7F0031B27D017C00227D017C007E001231B2E7
:101E8F007D017C00227D017C007E001231B27D013C
:101E9F007C00227D017C007E001231B27D017C002E
:101EAF00227D017C007E001231B27D017C00227DFB
:0D1EBF00017C007E001231B27D017C00220A
:1028DA00E490007AF090007AE0FF7E001222F05035
:1028EA004DEF24B0FFEE33FE7D017C001231B27D44
:1028FA00017C00E4FFFE1231B27D017C007F107E74
:10290A00001231B2E490007BF090007BE0C3948027
:10291A00748094805010E4FDFCFFFE1231B29000E6
:0E292A007BE004F080E390007AE004F080A7E8
:01293800227C
:102F400090009DEFF0ED24B0FFE433FE122F6854A3
:102F5000F0C4540F7E004410FF122F68540FFF7E00
:102F6000007D017C000231B27D017C001231B29003
:042F7000009DE022BE
:0B209900900098EDF0900097EFF0FD34
:1020A400E490009BF0A3F0EB24E090009BF0EDD3D0
:1020B400947F748094804007E490009712230F90DB
:1020C400009AE06410704412213F1222EB50131264
:1020D40022D824EEF582E58334021222991221508B
:1020E40080E8900097E0FFA3E004FD122F40E49005
:1020F400009CF01222EB50421222D824F6F582E51D
:1021040083340212229912215080E812213F900058
:102114009CE0FFC3940674809480501E90009BE062
:1021240075F006A424C6F582E5F0340012228F125D
:0A21340031B290009CE004F080D46A
:10213E0022900097E0FFA3E0FD122F40E490009C58
:0C214E00F0221231B290009CE004F0225C
:0E26400090008D122316EBF0A3EAF0A3E9F050
:10264E00E4900093F090008F1222F8900093E0F542
:10265E0082758300120F47FB604D90008DE0FFA343
:10266E00E0FD900092E090009AF012209990009276
:10267E00E06408701690008DE02406F0E0D3947AA2
:10268E0074809480401912230E801490008DE024E3
:10269E0008F0E0D3947874809480400312230E9057
:0726AE000093E004F0809EA0
:0126B5002202
:032CAC00900097FE
:102CAF001223161211B900000001900098E0FF14D2
:102CBF00F0EF6020A3E0F8A3E0F9A3E0FAA3E0FBB4
:102CCF00900097E0FFE4FCFDFE12100A90009912AD
:102CDF0011AD80D6900099E0FCA3E0FDA3E0FEA328
:022CEF00E0FF04
:012CF10022C0
:0B199D0090008D122316EAF0A3EBF07F
:1019A800E4900096F0900092E0FE64087006A3743C
:1019B80006F080069000937408F090008FE0FCA376
:1019C800E0FDC3EC648094805065C3E49DFDE49C15
:1019D80090008FF0A3EDF090008DE0FFA3E0FD9064
:1019E800009AEEF07B2D122099E4900094F090007C
:1019F80091E01222CF4003021A84121A85701A123B
:101A080022CA5015A3E0700BEE1222A41222C17B49
:101A18002080109000967401F0900094E01222A4A7
:101A28001222BA122099900094E004F00219F6E408
:101A3800900094F0900091E01222CF503F121A8546
:101A4800701D1222CA5018A3E0700E900093E01285
:101A580022AC1222C17B2080179000967401F0906E
:101A68000094E0FF900093E08FF01222AE1222BAA9
:0C1A7800122099900094E004F0021A3C47
:101A840022C3EF9E14FD7F0A122CACA804A905AA58
:101A940006AB0790008FE0FEA3E0FFEE3395E0FD78
:101AA400FC121095E47B0AFAF9F81210959000954F
:051AB400EBF0A3E022AD
:0D26B60090007CEBF090007AEFF0A3EDF0C7
:1026C300E490007EF0122F40E490007DF01223018D
:1026D300501890007CE075F040A424DEF582E5F00C
:1026E300340812228F12271C80E390007AE0FFA3A4
:1026F300E004FD122F40E490007DF01223015018F6
:1027030090007CE075F040A424FEF582E5F03408E7
:0827130012228F12271C80E343
:10271B00221231B290007EE004F090007DE004F0D4
:01272B00228B
:0A231D0090007AEFF090007CEBF0E6
:10232700E4900081F0A3F090007DE0FF540770086F
:10233700EF131313541F800A90007DE013131354F7
:102347001F04900084F0900084EDF090007DE0FF82
:10235700900084E0FDC39F504990007AE0FF122F60
:102367004090007AE0900083F090007CE0FF9000BE
:1023770083E0C39F502490007E1222F8A3E475F0F7
:1023870001120FF485F082F583120F4712229D1276
:1023970031B2900083E004F080CF900084E004F035
:0223A70080A90B
:0123A9002211
:063417006572726F720085
:102ED000E0FAA3E0FB9000917402F0A37410F022DA
:102EE000900089E0FCA3E0FDEC020D31E4120D310D
:102EF0007B007AFF797F7847020C8F9400E0648032
:082F0000948090009A741022E5
:103237001233B67F8812324F7F2712324F7F3712F1
:0F324700335E12327F0233C212335E12327F22A5
:0E28720090008DEBF0A3EAF0A3E9F0A3EDF0E7
:10288000A374FFF0E4FD900090E0FFEDC39F50447F
:10289000A3E0FF90008DE0FBA3E0FAA3E0F98D82B6
:1028A000758300120F47FEEF6E900091F07F08EFE6
:1028B000D39400748094804018900091E030E70732
:1028C00025E06431F08007900091E025E0F01F8062
:0928D000DE0D80B2900091E0FFE2
:0128D90022DC
:10123F001233B67F881214A07FE01214A0E4FF12BD
:10124F00335E12327F1233B67F8912335E12327FD2
:10125F0012336F90007D12148E90007E12148E90B8
:10126F00007F121497900080121497900081EFF076
:10127F0012327F12336F900082EFF01233C27B0174
:10128F007A00797D7D0212287290007FE06F6003F3
:10129F000214777B017A0079807D02122872900008
:1012AF0082E06F600302147790007DE0FEA3E0FD03
:1012BF00AC06900080E0FEA3E0FBEBFF900087EE12
:1012CF00F0A3EFF0AE04AF05122EEC7B007AC079DD
:1012DF00DA7844120B86E4FBFA79E178C3120A95A7
:1012EF00120D6A9000DBEEF0A3EFF07C007D0A1286
:1012FF000FA8900089EEF0A3EFF0900087E0FCA319
:10130F00E0FD122EECE4FBFA79C87842120B86123C
:10131F000D6A9000DDEFF0122EE07B337AB3796D1A
:10132F007843120A95C004C005C006C007122EE00C
:10133F007BF67A28798A7841120B86D003D002D0B7
:10134F0001D000120C8F12222DC004C005C006C0A0
:10135F00079000DDE075F06484FCE4120D367B2904
:10136F007A5C79C37840120B86D003D002D001D0BB
:10137F0000120B86120D6AAD07AC06E4120D317B1D
:10138F00CD7ACC794C783E120B86C004C005C006CE
:10139F00C007122EE07BC37AF57988783F120B864F
:1013AF00D003D002D001D000120A957BCD7ACC7930
:1013BF002C78C0120A95120D6A90008BEEF0A3EFF5
:1013CF00F09000DBE0FEA3E0FFEE3395E0FDFC9034
:1013DF00009B1211AD7F011225C59000DDE0FFE4E7
:1013EF00FCFDFE90009B1211AD7F021225C59000EF
:1013FF0089122ED07D047F2012199DD390008AE090
:10140F00900089122EFB4009F07B607D047F3080B5
:10141F0007F07B607D047F381220999000DDE0FBA0
:10142F007A00122ED57D047F6812199D90009A7450
:10143F0010F07B257D047F7812209990008B122E5F
:10144F00D07D067F4012199DD390008CE090008BC9
:10145F00122EFB4009F07B607D067F508007F07BEA
:10146F00607D067F580220997BFF7A3479179000B0
:0E147F00927410F07D047F2012264012323746
:10148D0022EFF012327F12336F22EFF012327F1201
:0A149D00336F2212335E12327F22F9
:1033210075AC1075D6FE75D7E0758E14D29CC202AD
:0633310075AF08D2AF22C7
:080003002002FDD2028FAD22A4
:03008B00022A3E08
:102A3E00C0E0C0F0C083C082C0D075D000C000C05E
:102A4E0001C002C003C004C005C006C007E5AC301B
:102A5E00E10753ACFDC202B292E5AC30E00A53ACD2
:102A6E00FEB291AFAD122547D007D006D005D004E7
:102A7E00D003D002D001D000D0D0D082D083D0F0FD
:032A8E00D0E03263
:0E30C4004400D7000000004400D300000000CC
:102FDA009000D7E0FCA3E0FDA3E0FEA3E022FF12ED
:102FEA001095AC00AD01AE02AF03E4FBFAF9F8C3E9
:102FFA000211422401FFE43EFEE43DFDE43CFC02F2
:02300A0011AD06
:10318C00538E7F5389F0E4F58A758CDCC28DD28C1A
:10319C00D2A99000D71211B9000000009000DFE412
:0631AC00F0A3740FF022F5
:03000B0002215A75
:10215A00C0E0C0F0C083C082C0D075D000C000C04B
:10216A0001C002C003C004C005C006C007122FDAAE
:10217A009000D7122FFDE47B64FAF9F8122FDA12D5
:10218A002FE8704C9000D3122FDD9000D3122FFD50
:10219A009000DFE0FEA3E0FBAA06E4F89000D31269
:1021AA002FDD122FE870059000E104F0E47F3CFE79
:1021BA00FDFC9000D3E0F8A3E0F9A3E0FAA3E0FB6A
:1021CA00C3121142400A9000D31211B90000000054
:1021DA00D007D006D005D004D003D002D001D00059
:0B21EA00D0D0D082D083D0F0D0E03203
:05342F00122FDAFF225C
:1000C6000000000000000000002F000000000700F4
:1000D600070000147F147F1400242A7F2A1200626E
:1000E600640813230036495522500000050300001A
:1000F60000001C224100000041221C000014083EA2
:1001060008140008083E0808000000A06000000867
:1001160008080808000060600000002010080402BB
:10012600003E5149453E0000427F40000042615179
:100136004946002141454B31001814127F10002713
:1001460045454539003C4A494930000171090503D6
:1001560000364949493600064949291E0000363607
:10016600000000005636000000081422410000146A
:100176001414141400004122140800020151090647
:1001860000324959513E007C1211127C007F4949C8
:100196004936003E41414122007F4141221C007FF9
:1001A60049494941007F09090901003E4149497A07
:1001B600007F0808087F0000417F41000020404181
:1001C6003F01007F08142241007F40404040007FED
:1001D600020C027F007F0408107F003E4141413E31
:1001E600007F09090906003E4151215E007F091979
:1001F60029460046494949310001017F0101003F76
:100206004040403F001F2040201F003F4038403FF5
:100216000063140814630007087008070061514959
:10022600454300007F41410000552A552A550000EC
:1002360041417F000004020102040040404040406A
:10024600000001020400002054545478007F484402
:10025600443800384444442000384444487F003839
:100266005454541800087E0901020018A4A4A47C62
:10027600007F080404780000447D4000004080842C
:100286007D00007F102844000000417F4000007C74
:1002960004180478007C0804047800384444443880
:1002A60000FC242424180018242418FC007C0804CC
:1002B600040800485454542000043F444020003CA5
:1002C6004040207C001C2040201C003C4030403C2C
:1002D600004428102844001CA0A0A07C00446454BC
:1002E6004C44141414141414000000000000000000
:1002F6000000000000000000000000F80000000000
:10030600000000333000000000100C06100C060040
:10031600000000000000000040C07840C0784000A7
:10032600043F04043F040400007088FC0830000009
:10033600001820FF211E0000F008F000E018000061
:1003460000211C031E211E0000F00888700000001A
:100356001E2123241927211010160E00000000006C
:100366000000000000000000000000E01804020089
:10037600000000071820400000020418E0000000FA
:100386000040201807000000404080F080404000F8
:100396000202010F01020200000000F0000000004E
:1003A6000101011F01010100000000000000000022
:1003B60080B0700000000000000000000000000097
:1003C6000001010101010101000000000000000020
:1003D60000303000000000000000000080601804BB
:1003E600006018060100000000E010080810E00098
:1003F600000F102020100F00001010F80000000061
:100406000020203F202000000070080808887000A7
:100416000030282422213000003008888848300027
:100426000018202020110E000000C02010F8000047
:1004360000070424243F240000F8088888080800E0
:100446000019212020110E0000E0108888180000F5
:10045600000F112020110E0000380808C8380800C7
:100466000000003F00000000007088080888700047
:10047600001C222121221C0000E010080810E000C8
:100486000000312222110F00000000C0C000000051
:100496000000003030000000000000800000000076
:1004A600000080600000000000008040201008006E
:1004B6000001020408102000404040404040400037
:1004C6000404040404040400000810204080000012
:1004D6000020100804020100007048080808F00017
:1004E6000000003036010000C030C828E810E000E7
:1004F6000718272423140B000000C038E000000072
:10050600203C23020227382008F8888888700000DB
:10051600203F202020110E00C030080808083800AF
:10052600071820202010080008F808080810E00026
:10053600203F202020100F0008F88888E8081000C7
:10054600203F20202320180008F88888E80810009B
:10055600203F200003000000C030080808380000D3
:1005660007182020221E020008F808000008F808D4
:10057600203F210101213F20000808F8080800005B
:100586000020203F2020000000000808F80808008E
:10059600C08080807F00000008F888C02818080006
:1005A600203F20012638200008F80800000000003F
:1005B600203F20202020300008F8F800F8F8080036
:1005C600203F003F003F200008F830C00008F80830
:1005D600203F200007183F00E01008080810E00040
:1005E6000F10202020100F0008F808080808F00057
:1005F600203F210101010000E01008080810E0007A
:100606000F18242438504F0008F88888888870000E
:10061600203F2000030C30200070880808083800AE
:100626000038202121221C00180808F808081800A4
:100636000000203F2000000008F808000008F80825
:10064600001F202020201F000878880000C83808D6
:10065600000007380E010000F80800F80008F8004E
:10066600033C0700073C03000818688080681808E8
:1006760020302C03032C30200838C800C838080066
:100686000000203F2000000010080808C8380800B5
:100696002038262120201800000000FE0202020059
:1006A6000000007F40404000000C30C00000000009
:1006B600000000010638C00000020202FE00000031
:1006C600004040407F0000000000040202020400D7
:1006D6000000000000000000000000000000000014
:1006E600808080808080808000000C12120C0000C8
:1006F60000000000000000000000808080800000F4
:100706000019242222223F2008F8008080000000E1
:10071600003F112020110E000000008080800000A4
:10072600000E112020201100000000808088F800B3
:10073600000E112020103F200000808080800000E5
:10074600001F222222221300008080F08888881849
:100756000020203F20200000000080808080800054
:10076600006B94949493600008F8008080800000E9
:10077600203F210000203F200080989800000000C4
:100786000020203F202000000000008098980000F4
:1007960000C08080807F000008F800008080800014
:1007A600203F24022D302000000808F80000000039
:1007B6000020203F202000008080808080808000F4
:1007C600203F20003F20003F808000808080000086
:1007D600203F210000203F20000080808080000014
:1007E600001F202020201F00808000808000000045
:1007F60080FFA12020110E00000000808080800074
:10080600000E112020A0FF80808080008080800064
:1008160020203F2120000100000080808080800091
:100826000033242424241900008080E08080000006
:100836000000001F20200000808000000080800053
:10084600001F202020103F208080800000808080B4
:1008560000010E3008060100808000800080808044
:100866000F300C030C300F00008080008080800069
:100876000020312E0E312000808080000080808094
:1008860080818E7018060100008080808080800044
:100896000021302C2221300000000000807C020262
:1008A60000000000003F404000000000FF00000084
:1008B60000000000FF0000000002027C8000000033
:1008C6000040403F0000000000060101020204044F
:1008D60000000000000000001060028C0000FE9284
:1008E60092929292FE0000000000000000000000BC
:1008F600000000000000000004047E01407E424229
:100906007E427E42427E4000000000000000000061
:1009160000000000000000000000FC242424FC2548
:100926002624FC242424040000000000000000000B
:10093600000000000000000040308F80844C5525E8
:100946002525554C80808000000000000000000036
:1009560000000000000000001060028C00FE929271
:1009660092929292FE00000000000000000000003B
:10097600000000000000000004047E014448507F8F
:1009860040407F5048444000000000000000000046
:100996000000000000000000008060F80710101042
:1009A600D0FFD01010100000000000000000000072
:1009B6000000000000000000010000FF1008040B0A
:1009C60008FF080B040810000000000000000000EB
:1009D60000000000000000000000FC04D454545441
:1009E600D4047F84C5360400000000000000000027
:1009F6000000000000000000886601006382829209
:100A0600AB8482C10224CF00000000000000000079
:100A160000000000000000000003050911FF110995
:100A260005038850205088000000000000000000E8
:100A36000003050911FF118905C300E000F000F865
:100A460000000000000000000003050911FF1189E5
:100A560005C300E000F000F80000021F42F8400065
:100A660000FE8282828292BA9282828282EE38006E
:100A760000000000000000000000FCFEFEFC00007C
:080A860000003F7F7F3F0000EC
:0530D20042010F0000A7
:101FB400EB4FFFEAFEE9FDE8FC90009F1211AD90A3
:101FC400009FE0FCA3E0FDA3E0FEA3E0FF2290005D
:101FD400A5E0FBA3E0FAA3E0F922EBF0A3EAF0A367
:101FE400E9F022780812117A90009F1211AD900046
:101FF4009FE0F8A3E0F9A3E0FAA3E022FFE0FBA34B
:10200400E475F001120FF4A9F0FA22A3E0FBA3E0B7
:10201400FAA3E04A4B22AD07E4FFFE900002E0641D
:102024000122AB07AA067D037F0722900071740189
:10203400F0A37400F0A37423F02290007AE0FEA3CE
:10204400E0FFC3900110E09FFD90010FE09EFC2291
:10205400900071A3E0FAA3E022A3E0FDA3E09000C6
:1020640098CDF0A3EDF0229000EAE0FCA3E0FDA3FC
:102074002290007AE0FEA3E022E0FCA3A3A3E0FF09
:10208400E4AD0722E99582EA958322ECF0A3EDF012
:05209400120F2EFF22D7
:10272C00EFC39430400CEFD39439500674D02FFF84
:10273C008022EFC39441400CEFD394465006EF2413
:10274C00C9FF8010EFC39461400AEFD39466500424
:10275C00EF24A9FFEF540FC454F0FFEDC3943040A5
:10276C000CEDD39439500674D02DFD801EEDC3941E
:10277C00414008EDD394465002800CEDC394614067
:10278C000AEDD394665004ED24A9FDED540F4FFFD0
:01279C00221A
:0629E900900093121FDEB6
:1029EF00A31211B90000000090009312201070057F
:1029FF00FFFEFDFC229000961211B900000000901E
:102A0F000093122001120F2E601E90009612206E5E
:102A1F00E0FEA3E02401FFE43EFEE43DFDE43CFCC8
:0E2A2F009000961211AD80D7900096121FC62F
:012A3D002276
:062E5E009000C1121FDE0E
:102E64009000C7121FDE9000C11220107004FBFAFC
:102E7400F9229000C574FFF5F0120FF445F0600CD0
:102E84009000C7122001ED120F7480E69000C11269
:022E94001FD548
:012E96002219
:061BD50090009A121FDED1
:101BDB009000A2121FDE90009D121FF89000A5C965
:101BEB00121FDF90009A122010600512200F700751
:101BFB007B007A00790022121FD2C003C002C00101
:101C0B009000A2121FD7D3D082D083D0E0122088AD
:101C1B00402A9000A5121FD79000A0E0FEA3E0FF82
:101C2B00E92FF9EA3EFAC003C002C001A3121FD785
:101C3B00D3D082D083D0E01220884046E49000A815
:101C4B00F0A3F09000A0E0FEA3E0FF9000A8E0FC62
:101C5B00A3E0FDC39FEC9E5079121FD28D828C8323
:101C6B00120F47FF9000A2121FD58D828C83EF12AB
:101C7B000F869000A9E004F070069000A8E004F035
:101C8B0080C19000A0E0FFA3E09000A8CFF0A3EFED
:101C9B00F09000A8E0FEA3E0FFD39400EE94004088
:101CAB0031121FD2EF24FFFFEE34FFFE8F82F5833C
:101CBB00120F47FD9000A2121FD58F828E83ED125B
:101CCB000F869000A9E024FFF09000A8E034FFF00D
:081CDB0080BF90009A121FD592
:011CE30022DE
:062AE3009000CA121FDE84
:102AE9009000D0121FDE9000CA122010600512203B
:102AF9000F70077B007A007900229000CD121FD554
:102B0900120F2E60159000CD122003120F2E900087
:102B1900CA122000EF120F7480E09000CA121FD56C
:0A2B2900E4120F749000D0121FD5C3
:012B3300227F
:102939009000F0121FDE9000F0121FD5120F2EFF2B
:1029490060249000F3121FD5120F2E6019B50716D7
:102959009000F1E475F001120FDE9000F4E475F0D7
:1029690001120FDE80D09000F3121FD5120F2EFF37
:102979003395E0FE9000F0121FD5120F2EFD33950E
:0A298900E0FCC3ED9FFFEC9EFE2270
:102C1D009001071211AD900107121FC678181211FD
:102C2D0053EF120F74900107121FC6781012115333
:102C3D00900001EF120F86900107121FC67808123F
:102C4D001153900002EF120F86900107A3A3A3E08A
:082C5D00FF900003EF020F8657
:0624C10090009C121FDEDA
:1024C700A31211B900000000120F2EFFE4FCFDFE5D
:1024D700121FBD121FE7FBC000C001C002C003905E
:1024E700009C121FD5900001120F47FFD003D002A6
:1024F700D001D000121FB4121FE7FBC000C001C0FB
:1025070002C00390009C121FD5900002120F47FFD4
:10251700D003D002D001D000121FB4121FE7FBC0B6
:1025270000C001C002C00390009C121FD590000399
:0F253700120F47FFD003D002D001D000121FB403
:012546002272
:062DEA009000F7121FDE4D
:102DF00012201A70020F22123216E4FD12321690BF
:102E000000FAE0FD1232169000FBE0FD123216903F
:102E100000F7121FD512205D122B34122026122823
:032E2000097F0126
:012E2300228C
:072E9700900111EDF0AC0702
:102E9E0012201C70020F22AD041232167D01123266
:102EAE0016E4FD1232167D01123216900111E070F9
:102EBE0003FD80027D011232161220261228097F90
:012ECE000102
:012ECF0022E0
:1025C50012201A70020F221232167D02123216E400
:1025D500FD1232167D04123216C006C00790009B0C
:1025E500121FC67818121153AD07D007D006123244
:1025F50016C006C00790009B121FC6781012115313
:10260500AD07D007D006123216C006C00790009B52
:10261500121FC67808121153AD07D007D006123223
:1026250016C006C00790009B12207DD007D0061269
:0A26350032161220261228097F0138
:01263F002278
:062E24009000FD121FDE0C
:102E2A0012201A70020F221232167D0312321690E5
:102E3A000100E0FD123216900101E0FD12321690F7
:102E4A0000FD121FD512205D122B341220261228E3
:032E5A00097F01EC
:012E5D002252
:072F7400900088EDF0AC07AE
:102F7B0012201C70020F22AD041232167D04123285
:102F8B0016E4FD1232167D01123216900088E0FD18
:0B2F9B001232161220261228097F01B6
:012FA6002208
:021AB900AD0777
:101ABB00E49000EEF0A3F012201F70037F01229040
:101ACB0000EEE0FEA3E0FF121BB17D05121BB1E49B
:101ADB00FD121BBD12206BE0FEA374FFFFE47BFF26
:101AEB00FAF9F8C312114270139000EE7D01121B2C
:101AFB00A09000EAA3A3A3E0FD021B8312206BA31B
:101B0B0074FFFFFEE47BFF7AFFF9F8C312114290DA
:101B1B0000EE7009E0FEA3E0FF7D0280327D04122F
:101B2B001BA0C006C0079000EA121FC6781812113E
:101B3B0053AD07D007D006121BBDC006C0079000DF
:101B4B00EA121FC67810121153AD07D007D0061238
:101B5B001BC9C006C0079000EA121FC678081211F5
:101B6B0053AD07D007D006121BC9C006C0079000A3
:101B7B00EA12207DD007D0061232169000EEEEF05E
:101B8B00A3EFF09000EEE0FAA3E0FB7D037F0712DA
:041B9B0028097F0195
:101B9F0022E0FEA3E0FF1232169000EEEEF0A3EF6C
:101BAF00F0221232169000EEEEF0A3EFF022123276
:101BBF00169000EEEEF0A3EFF0221232169000EE28
:061BCF00EEF0A3EFF0228E
:0734030090010B12208F2243
:07340A0090010D12208F223A
:0B33E40090009AECF0A3EDF00224C171
:10254700900078EFF0122054AE02FF900074A3E0E1
:10255700FAA3E0C39FFFEA9EFEEF64014E605E9020
:102567000074E0FBA3A3E0F9C003C002C001900020
:1025770071121FD7D3D082D083D0E0122088401E9B
:10258700900074A3E0FAA3E0AE02FF1220549FFF6D
:10259700EA9EFEC3EF9417EE64809480501F1220CA
:1025A70054C390003A9582EA9583400312202F90F6
:0E25B7000078E0900071122000EF120F7422E5
:0C008E00900102121FDEA3ECF0A3EDF0C5
:10009A00E4FDFCD3900106E09D900105E09C401828
:1000AA00900102121FD58D828C83120F47FF1225F1
:0800BA00470DBD00010C80DBC5
:0100C200221B
:10169C00E490007AF0A3F0A3F0A3F0C3900110E063
:1016AC00941F90010FE09400502A12303BD3EF941A
:1016BC000074809480401D122B8390010FE475F010
:1016CC0001120FF4FC740325F0F58274003CF583D1
:1016DC00EFF080C7C3900110E0940790010FE094E5
:1016EC0000500302186312203EC3ED9407EC9400E3
:1016FC00500302182874032FF58274003EF583E022
:10170C006455601090007BE004F070DA90007AE091
:10171C0004F080D2122075FF2404F58274003EF58B
:10172C0083E064AA601090007BE004F070B8900035
:10173C007AE004F080B074052FF58274003EF583D6
:10174C00E0600990007BE0240202180390007AE02C
:10175C00FCA3E0FD2407F58274003CF583E09000C7
:10176C007CF0A3E4F074082DF58274003CF583E062
:10177C002407FFE433FE90007DE02FF090007CE026
:10178C003EF0E0FEA3E0FFD39426EE9400400890D8
:10179C00007BE02403806090007AE0FCA3E0FDC3B2
:1017AC00900110E09DFD90010FE09CFCD3EF9DEEAD
:1017BC009C50691220752403F974003EFA7B019049
:1017CC00007DE024FFFD90007CE034FFFC122F082C
:1017DC00AD0790007CE0FAA3E0FB122075FF2BFB19
:1017EC00EE3AFA74022BF58274003AF583E06D60E0
:1017FC001190007BE02403F090007AE03400F002BA
:10180C0016F212186490007CE0FEA3E0FF90007BBF
:10181C00E02FF090007AE03EF00216F212203EF03B
:10182C00A3EDF0D39400EC9400402C74032FF974C6
:10183C00003EFA90009D7401F0A3EAF0A3E9F09049
:10184C00010FE0FFA3E09000A0CFF0A3EFF07B012D
:07185C007A007903121BD58D
:011863002262
:1033370012202F900074122032E4900002F09000C7
:053347007774FFF02285
:06341D00900022E0FF22F6
:0E338E00E4900022F0FBFA7D037F0402280980
:06342300900001E0FF2211
:0232F400AD0724
:1032F600E4FF900001F0FE123216EFFB7A007D0328
:053306007F050228090B
:06342900900077E0FF2295
:0F30D7004C00AA010202020304040206020702CF
:102D71009000DFE0FEA3E0FFE4FCFD90009B021168
:102D8100AD900090E0FBA3E0FAA3E0F9A3E0FCA37F
:102D9100E0FD22A3A3E0FFA3E09000DFCFF0A3EFCB
:0E2DA100F022E0FCA3E0FDA3E0FEA3E0FF2291
:0334340002000390
:102A91009000DBE0FEA3E0FFEE3395E0FDFC122D9C
:102AA1007C7F011225C59000DDE0FFE4FCFDFE12F4
:102AB1002D7C7F021225C59000DEE0FD7F03122FE1
:102AC100749000DEE0FFE4FCFDFE122D7C7F041219
:102AD10025C5122D717F061225C5122D717F0702A2
:022AE10025C509
:103115001233E49000961211AD900096122D949002
:103125000096122DA3122D7C7F061225C5EF640192
:0731350070037F01227F00FF
:01313C002270
:10313D001233E49000961211AD900096122D9490DA
:10314D000096122DA3122D7C7F071225C5EF640169
:07315D0070037F01227F00D7
:013164002248
:0B309400900090EBF0A3EAF0A3E9F03D
:10309F00EF24F9600B047013122D82123115800684
:1030AF00122D8212313D900095EFF0900095E0FFC8
:0130BF0022EE
:033437007F0622EB
:102DAF007B2270223A220078787878787878787851
:102DBF007878787878787800222C2276223A220058
:102DCF00312E302E3000222C226D223A0032007D1F
:0B2DDF000000000000000000000000E9
:0430E60041000000A5
:102FA7009000A1E0FBA3E0FAA3E022EBF0A3EAF094
:102FB700A3E9F022E0FBA3E475F001120FF4A9F0F6
:102FC700FA020F2EEEF0A3EFF02440F974003EFA58
:032FD7007B012259
:0332160090009F86
:10321900122FCBED120F749000A0E004F07006900D
:0D322900009FE004F090009FE0FEA3E0FF96
:013236002275
:092B3400900095122FB29000935D
:102B3D00122FCBC002C001A3E0F9A3E0FAA3E090ED
:102B4D00009DC9122FB3900098E0FFA3E09000A064
:102B5D00CFF0A3EFF0D001D002121BD5900098E07A
:102B6D00FEA3E0FF900094E02FF0900093E03EF084
:052B7D00E0FEA3E0FFF3
:012B82002230
:0C2F08009000A1122FB2A3ECF0A3EDF09A
:102F1400E4A3F0FFFED39000A5E09F9000A4E09E00
:102F240040149000A1122FBBFD9000A6E02DF00FDD
:0B2F3400BF00010E80DF9000A6E0FF50
:012F3F00226F
:102CF2009000A1122FB2A3ECF0A3EDF0122FA74A7D
:102D02004B602DA3E07002A3E060259000A474FF45
:102D1200F5F0120FF445F06017122FA7F9120F2EDB
:102D2200FF1234349000A2E475F001120FDE80DB52
:012D3200227E
:0828090090009FEAF0A3EBF040
:1028110090003A7455F0A374AAF0A3EDF0A3EFF081
:1028210090009FE0FCA3E0FDEC90003EF0EDA3F0F2
:102831009000A0E02407F090009FE03400F07B01BD
:102841007A00793AA3E024FFFD90009FE034FFFC79
:10285100122F08AE0790009FE0FCA3E0FD2439F59C
:102861008274003CF583EFF07B017A00793A022C07
:01287100F274
:10316500E4FF900000E0700DFEFD123216900000A5
:103175007401F080077E007D01123216EFFB7A00A4
:073185007D03E4FF022809AD
:101CE400E4900088F078897C007D017BFF7A2D796F
:101CF400E0FE7F0A120F087A2D79AF121D7F7A2D2C
:101D040079AF121DBF7A2D79B6121D7F7A2D79B65F
:101D1400121DBF7A2D79C7121D967A2D79C7121D0F
:101D2400D67A2D79CF121D967A2D79CF121DD67AB7
:101D34002D79D5121DC87A2D79D5121DAD7A2D793C
:101D4400DC121DC87A2D79DC121DAD7BFF7A2D794A
:101D5400DE1229E9900098EEF0A3EFF0900088E0FD
:101D6400FF7E007BFF7A2D79DE122B34900088EF02
:0B1D7400F0FB7A007D037F01022809CC
:101D7F007BFF1229E9900098EEF0A3EFF090008816
:101D8F00E0FF7E007BFF227BFF1229E9900098EE97
:101D9F00F0A3EFF0900088E0FF7E007BFF22900021
:101DAF0088E0FF7E007BFF122B34900088EFF0223B
:101DBF00122B34900088EFF0227BFF1229E990005C
:101DCF0098EEF0A3EFF022122B34900088EFF02260
:0A33F900E4FBFA7D037F02022809BD
:05300C0090008FEFF0C1
:10301100123437E4FEEEC39F501D75F002EEA42476
:10302100AAF582E5F03400F583E0FD90008FE0FC25
:09303100ED6C60030E80DEAF06B9
:01303A002273
:06000E00900088122FB2E1
:10001400120F2E90008BF0FD900001120F479000FC
:100024008CF0900002120F4790008DF0A3E4F09042
:100034000003120F47FF90008EE02FF090008DE038
:100044003400F0AF0512300C75F002EFA424ABF5C8
:1000540082E5F03400F583E0FF90008CE06F6003EC
:100064007F002290008BE0FF900088122FAA2404C6
:10007400F9E43AFA90008DE0FDA3E0900093CDF00E
:06008400A3EDF012309420
:01008A002253
:0818640090007EEEF0A3EFF00E
:10186C0090007EE0FEA3E02406F58274003EF58332
:10187C00E0FFB40900400302199C90188DF8282849
:10188C00730218A80218AB0218AE0218B10218D0D5
:10189C000218D50218DC02199C0219990231650252
:1018AC001CE40233F990007EE0FEA3E02409F582EB
:1018BC0074003EF583E0900077F0E4FBFA7D037F43
:1018CC000302280990002280039000017401F02289
:1018DC0090007EE0FCA3E0FD2407F58274003CF54B
:1018EC0083E0FE74082DF58274003CF583E0FDED79
:1018FC00FF900085EEF0A3EFF0E4900083F0A3F0EE
:10190C00900085E0FEA3E0FFC3900084E09F900070
:10191C0083E09E507BE0FEA3E0FF90007EE0FCA302
:10192C00E0FD2FFBEC3EFA740B2BF58274003AF5BC
:10193C0083E0900080F0A3E4F0740C2BF58274002B
:10194C003AF583E0FF900081E02FF0900080E034C6
:10195C0000F074092DF974003CFA7B01900083E0CF
:10196C00FEA3E029F9EA3EFA12000E900082EFF095
:10197C00900081E02404FF900080E03400FE900091
:10198C0084E02FF0900083E03EF002190C122A91B3
:01199C002228
:10303B00900074122FAAF9C003C002C00190007156
:10304B00122FAAF9D082D083D0E06B7008E9658289
:0D305B007003EA658360037F01227F00227D
:102B8300900071122FAAF9C003C002C001A3122F33
:102B9300AAF9D082D083D0E06B7008E96582700314
:102BA300EA65836028900074A3E0FAA3E0C3900071
:102BB3003A9582EA9583400E9000747401F0A374F1
:0D2BC30000F0A37423F0900074122FBBFFEC
:012BD00022E2
:100A8E00020DD6E86480F8E933E83360110460F0B3
:100A9E00ED33EC337009E8FCE9FDEAFEEBFF2204CE
:100AAE0060DED3EB9FEA9EE99DE8C2E78CF0C2F7C9
:100ABE0095F0400CE8CCF8E9CDF9EACEFAEBCFFB95
:100ACE00120DA185D0F05804700320D5B3E8047040
:100ADE00075002B2D5020DE092D5EC0460F7E4CCDB
:100AEE00C0E0C398F8603B94186008400DD0E0FB5E
:100AFE00020DB8E4FBFAC9FC8028E830E406E4C92C
:100B0E00FBE4CAFCE830E305E4C9CACBFCE85407B1
:100B1E006010F8C3E913F9EA13FAEB13FBEC13FCBC
:100B2E00D8F130F52FC3E49CFCEF9BFFEE9AFEED5F
:100B3E0099FDD0E0FBEF4E4D4C701222DB03020DFF
:100B4E00DDEC2CFCEF33FFEE33FEED33FDED30E745
:100B5E00EB020DB8EF2BFFEE3AFEED39FDD0E0FBC8
:100B6E0050130BBB0003020DE0ED13FDEE13FEEF71
:080B7E0013FFEC13FC020DB89B
:100B8600EC4D6011E8497017ED33EC3304600DE469
:100B9600FCFFFEFD22E933E8330470F8020DD6129D
:100BA6000DA158046009E4CC24815006285009029E
:100BB6000DE0284003020DDDC0E0EB4A7044B98029
:100BC60006D0E0FB020DCCEF4E701CBD8008EBFF9B
:100BD600EAFEE9FD80EBE98DF0A4FEE5F0020C6F7C
:100BE600E9CDF9EAFEEBFFEF89F0A4FCE5F0CE894A
:100BF600F0A42EFFE435F0CD89F0A42DFEE435F007
:100C06008067EF4E7005BD80D780C3EF8BF0A4AC34
:100C1600F0EE8BF0A42CFCE435F0F8EF8AF0A42C6F
:100C2600E5F038FCE433CB8DF0A42CFCE5F03BF882
:100C3600EE8AF0A42CFCE5F038F8E433CF89F0A472
:100C46002CFCE5F038CF3400CE89F0A42FFFE5F078
:100C56003EFEE433C98DF0A42EFEE5F039CD8AF0D0
:100C6600A42FFFE5F03EFEE43DFD33D0E0FB500748
:100C76000BBB000F020DE0EC2CFCEF33FFEE33FE56
:060C8600ED33FD020DB884
:100C8C00020DE0EC5D046005E859047003020DD61A
:100C9C00120DA1580460F6EC4860F2EC7004FDFEF5
:100CAC00FF22C860DB2481C85009C398600250063B
:100CBC00020DDD9850CAF582E9294B4A7005AB82CA
:100CCC00020DCC75F0007C1A7880C3EF9BEE9AED88
:100CDC0099400DC3EF9BFFEE9AFEED99FDE842F0B3
:100CEC00DC23ACF0D0E0FFD0E0FED0E0FDAB822006
:100CFC00E7101BEB60BAEC2CFCEF33FFEE33FEED90
:100D0C0033FD020DB8E803F830E705C0F075F000CC
:100D1C00EF2FFFEE33FEED33FD40B830E7C280AA73
:100D2C0075F020800E75F010800575F0087D007E42
:100D3C00007F003392D530D503121134EC334010C0
:100D4C00EF33FFEE33FEED33FDEC33FCD5F0ED224B
:0E0D5C00E5F0247EA2D513CC92E7CDCEFF2287
:100D6A00EDD2E7CD33EC3392D524814006E4FFFE81
:100D7A00FDFC22FCE4CFCECDCC24E0501174FF80E0
:100D8A00EDC3CC13CCCD13CDCE13CECF13CF04707D
:070D9A00F030D5DE02113438
:1021F50033DA929E35B16011377FE5FE3921848946
:102205003AAEC3FF3C1D955B3D6358473E75FDF0F7
:102215003F3172183F800000C2D5020DE0020DD695
:10222500BD80FA50F3020DDDED33EC330460F17B34
:102235003B7AAA79B8783F120B86ED33EC3392D509
:10224500247B5011A2D570DB500BED448024045043
:1022550004A2D580CEEFFBEEFAEDF9ECF8120D6A8B
:10226500EFF582F404FC120D36120A95C082902116
:10227500F57409120DFAED33CC33D0F092D525F073
:0A228500A2D57001C313CC13FD2293
:100DA100E9D2E7C933E833F892D5EDD2E7CD33EC98
:070DB10033FC5002B2D52211
:100DB800EC30E7100FBF000C0EBE00080DBD00049C
:100DC8000BEB6014A2D5EB13FCED92E7FD2274FF48
:100DD800FCFDFEFF22E480F8A2D574FF13FC7D80A1
:030DE800E480EFB5
:100DEB00C0E0EFFBEEFAEDF9ECF8120B86D0E0F574
:100DFB00F0EFFBEEFAEDF9ECF812118DA3A3A3A320
:100E0B00E8C0E0E9C0E0EAC0E0EBC0E0C0F0120BE4
:100E1B008612119DA3A3A3A3120A95D0F0D0E0FBD9
:0D0E2B00D0E0FAD0E0F9D0E0F8D5F0D42204
:030000000223AA2E
:0C23AA00787FE4F6D8FD7581200223F155
:100E3800E709F608DFFA8046E709F208DFFA803E9C
:100E480088828C83E709F0A3DFFA8032E309F60889
:100E5800DFFA8078E309F208DFFA807088828C83F1
:100E6800E309F0A3DFFA806489828A83E0A3F608A5
:100E7800DFFA805889828A83E0A3F208DFFA804C7F
:100E880080D280FA80C680D4806980F28033801056
:100E980080A680EA809A80A880DA80E280CA8033BF
:100EA80089828A83ECFAE493A3C8C582C8CCC58337
:100EB800CCF0A3C8C582C8CCC583CCDFE9DEE78007
:100EC8000D89828A83E493A3F608DFF9ECFAA9F086
:100ED800EDFB2289828A83ECFAE0A3C8C582C8CCDC
:100EE800C583CCF0A3C8C582C8CCC583CCDFEADEF5
:100EF800E880DB89828A83E493A3F208DFF980CC57
:100F080088F0EF60010E4E60C388F0ED2402B4044F
:100F18000050B9F582EB2402B4040050AF232345F6
:060F28008223900E887385
:100F2E00BB010689828A83E0225002E722BBFE02C1
:090F3E00E32289828A83E49322F4
:100F4700BB010CE58229F582E5833AF583E022505F
:100F570006E92582F8E622BBFE06E92582F8E222A9
:0D0F6700E58229F582E5833AF583E49322C3
:100F7400BB010689828A83F0225002F722BBFE015C
:020F8400F32256
:100F8600F8BB010DE58229F582E5833AF583E8F0A1
:100F9600225006E92582C8F622BBFE05E92582C84D
:020FA600F22235
:100FA800C2D5EC30E709B2D5E4C39DFDE49CFCEE64
:100FB80030E715B2D5E4C39FFFE49EFE1211EAC3E1
:100FC800E49DFDE49CFC80031211EA30D507C3E4DC
:060FD8009FFFE49EFE22D3
:100FDE00C5F0F8A3E028F0C5F0F8E582158270029E
:060FEE001583E038F0223B
:100FF400A3F8E0C5F025F0F0E582158270021583B0
:06100400E0C838F0E8220C
:10100A00E88FF0A4CC8BF0A42CFCE98EF0A42CFC85
:10101A008AF0EDA42CFCEA8EF0A4CDA8F08BF0A403
:10102A002DCC3825F0FDE98FF0A42CCD35F0FCEB62
:10103A008EF0A4FEA9F0EB8FF0A4CFC5F02ECD3927
:0F104A00FEE43CFCEAA42DCE35F0FDE43CFC2294
:1010590075F008758200EF2FFFEE33FECD33CDCC4E
:1010690033CCC58233C5829BED9AEC99E5829840D1
:101079000CF582EE9BFEED9AFDEC99FC0FD5F0D6AE
:10108900E4CEFBE4CDFAE4CCF9A88222B800C1B9D8
:101099000059BA002DEC8BF084CFCECDFCE5F0CB16
:1010A900F97818EF2FFFEE33FEED33FDEC33FCEB4F
:1010B90033FB10D703994004EB99FB0FD8E5E4F90A
:1010C900FA227818EF2FFFEE33FEED33FDEC33FCF7
:1010D900C933C910D7059BE99A4007EC9BFCE99AEB
:1010E900F90FD8E0E4C9FAE4CCFB2275F010EF2F30
:1010F900FFEE33FEED33FDCC33CCC833C810D70730
:101109009BEC9AE899400AED9BFDEC9AFCE899F86A
:0E1119000FD5F0DAE4CDFBE4CCFAE4C8F922FD
:0D112700CFF4CFCEF4CECDF4CDCCF4CC225D
:0E113400C3E49FFFE49EFEE49DFDE49CFC22CC
:10114200EB9FF5F0EA9E42F0E99D42F0E89C45F003
:01115200227A
:10115300E8600FECC313FCED13FDEE13FEEF13FF7A
:03116300D8F1229E
:10116600E86010ECA2E713FCED13FDEE13FEEF139F
:04117600FFD8F0228C
:10117A00E8600FEFC333FFEE33FEED33FDEC33FCD3
:03118A00D8F12277
:10118D00E493FC740193FD740293FE740393FF22A8
:10119D00E493F8740193F9740293FA740393FB22A8
:0C11AD00ECF0A3EDF0A3EEF0A3EFF022B5
:1011B900A8828583F0D083D0821211D01211D01267
:1011C90011D01211D0E473E493A3C583C5F0C5838C
:1011D900C8C582C8F0A3C583C5F0C583C8C582C880
:0111E90022E3
:1023B6000231D4E493A3F8E493A34003F68001F238
:1023C60008DFF48029E493A3F85407240CC8C33328
:1023D600C4540F4420C8834004F456800146F6DFF7
:1023E600E4800B01020408102040809030C0E47E97
:1023F600019360BCA3FF543F30E509541FFEE493EC
:10240600A360010ECF54C025E060A840B8E493A3B2
:10241600FAE493A3F8E493A3C8C582C8CAC583CADD
:10242600F0A3C8C582C8CAC583CADFE9DEE780BE95
:0130EA0000E5
:1011EA00BC000BBE0029EF8DF084FFADF022E4CCE9
:1011FA00F875F008EF2FFFEE33FEEC33FCEE9DECB2
:10120A00984005FCEE9DFE0FD5F0E9E4CEFD22EDF7
:10121A00F8F5F0EE8420D21CFEADF075F008EF2F41
:10122A00FFED33FD4007985006D5F0F222C398FD32
:05123A000FD5F0EA22CF
:00000001FF
